{
  "contractName": "MarketPlace",
  "abi": [
    {
      "inputs": [
        {
          "internalType": "uint256",
          "name": "feePercent",
          "type": "uint256"
        }
      ],
      "stateMutability": "nonpayable",
      "type": "constructor"
    },
    {
      "anonymous": false,
      "inputs": [
        {
          "indexed": false,
          "internalType": "address",
          "name": "seller",
          "type": "address"
        },
        {
          "indexed": false,
          "internalType": "uint256",
          "name": "price",
          "type": "uint256"
        },
        {
          "indexed": false,
          "internalType": "uint256",
          "name": "itemId",
          "type": "uint256"
        }
      ],
      "name": "Bought",
      "type": "event"
    },
    {
      "anonymous": false,
      "inputs": [
        {
          "indexed": false,
          "internalType": "address",
          "name": "market",
          "type": "address"
        },
        {
          "indexed": false,
          "internalType": "uint256",
          "name": "price",
          "type": "uint256"
        },
        {
          "indexed": false,
          "internalType": "uint256",
          "name": "itemId",
          "type": "uint256"
        }
      ],
      "name": "Uploaded",
      "type": "event"
    },
    {
      "inputs": [],
      "name": "feeBank",
      "outputs": [
        {
          "internalType": "address payable",
          "name": "",
          "type": "address"
        }
      ],
      "stateMutability": "view",
      "type": "function",
      "constant": true
    },
    {
      "inputs": [],
      "name": "itemsCount",
      "outputs": [
        {
          "internalType": "uint256",
          "name": "",
          "type": "uint256"
        }
      ],
      "stateMutability": "view",
      "type": "function",
      "constant": true
    },
    {
      "inputs": [
        {
          "internalType": "uint256",
          "name": "",
          "type": "uint256"
        }
      ],
      "name": "itemsForSale",
      "outputs": [
        {
          "internalType": "contract IERC721",
          "name": "item",
          "type": "address"
        },
        {
          "internalType": "uint256",
          "name": "id",
          "type": "uint256"
        },
        {
          "internalType": "address payable",
          "name": "creator",
          "type": "address"
        },
        {
          "internalType": "uint256",
          "name": "price",
          "type": "uint256"
        },
        {
          "internalType": "bool",
          "name": "sold",
          "type": "bool"
        }
      ],
      "stateMutability": "view",
      "type": "function",
      "constant": true
    },
    {
      "inputs": [],
      "name": "percentage",
      "outputs": [
        {
          "internalType": "uint256",
          "name": "",
          "type": "uint256"
        }
      ],
      "stateMutability": "view",
      "type": "function",
      "constant": true
    },
    {
      "inputs": [
        {
          "internalType": "contract IERC721",
          "name": "nft",
          "type": "address"
        },
        {
          "internalType": "uint256",
          "name": "itemId",
          "type": "uint256"
        },
        {
          "internalType": "uint256",
          "name": "price",
          "type": "uint256"
        }
      ],
      "name": "uploadNFT",
      "outputs": [],
      "stateMutability": "nonpayable",
      "type": "function"
    },
    {
      "inputs": [
        {
          "internalType": "uint256",
          "name": "itemNumber",
          "type": "uint256"
        }
      ],
      "name": "buyNFT",
      "outputs": [],
      "stateMutability": "payable",
      "type": "function",
      "payable": true
    },
    {
      "inputs": [
        {
          "internalType": "uint256",
          "name": "itemNumber",
          "type": "uint256"
        }
      ],
      "name": "calc_totalFee",
      "outputs": [
        {
          "internalType": "uint256",
          "name": "",
          "type": "uint256"
        }
      ],
      "stateMutability": "view",
      "type": "function",
      "constant": true
    }
  ],
  "bytecode": "0x608060405234801561001057600080fd5b506040516107bc3803806107bc83398101604081905261002f91610049565b600280546001600160a01b03191633179055600355610062565b60006020828403121561005b57600080fd5b5051919050565b61074b806100716000396000f3fe6080604052600436106100705760003560e01c806351ed82881161004e57806351ed82881461015e578063af15d78614610171578063c78ad77f146101a9578063e2c03ace146101bf57600080fd5b8063092d0afc146100755780632fc0c3fc1461010e57806338fba7ac1461013c575b600080fd5b34801561008157600080fd5b506100d061009036600461061c565b6001602081905260009182526040909120805491810154600282015460038301546004909301546001600160a01b03948516949293919092169160ff1685565b604080516001600160a01b039687168152602081019590955292909416918301919091526060820152901515608082015260a0015b60405180910390f35b34801561011a57600080fd5b5061012e61012936600461061c565b6101d5565b604051908152602001610105565b34801561014857600080fd5b5061015c610157366004610635565b610216565b005b61015c61016c36600461061c565b610378565b34801561017d57600080fd5b50600254610191906001600160a01b031681565b6040516001600160a01b039091168152602001610105565b3480156101b557600080fd5b5061012e60035481565b3480156101cb57600080fd5b5061012e60005481565b6000818152600160205260408120600390810154905482906064906101fa908461068c565b61020491906106ab565b61020e90836106cd565b949350505050565b610224565b60405180910390fd5b6040516323b872dd60e01b8152336004820152306024820152604481018390526001600160a01b038416906323b872dd90606401600060405180830381600087803b15801561027257600080fd5b505af1158015610286573d6000803e3d6000fd5b505060008054925090508061029a836106e5565b90915550506040805160a0810182526001600160a01b0385811682526020808301868152338486019081526060808601888152600060808801818152815482526001808852918a9020985189549089166001600160a01b0319918216178a5595519189019190915592516002880180549190971694169390931790945590516003850155516004909301805493151560ff199094169390931790925582513081529182018490529181018490527fece2e1c9ec11683a70e4ad9c339e68af9270140bb56d723522662ccfa853c73c91015b60405180910390a1505050565b600081815260016020526040812090610390836101d5565b90506000831180156103a457506000548311155b6103f05760405162461bcd60e51b815260206004820152601760248201527f506c6561736520656e74657220612076616c6964206964000000000000000000604482015260640161021b565b600482015460ff16156104515760405162461bcd60e51b815260206004820152602360248201527f54686973206974656d206973206e6f7420617661696c61626c6520666f722073604482015262616c6560e81b606482015260840161021b565b803410156104bc5760405162461bcd60e51b815260206004820152603260248201527f596f7520646f206e6f74206861766520656e6f75676820657468657220746f2060448201527170757263686173652074686973206974656d60701b606482015260840161021b565b600282015460038301546040516001600160a01b039092169181156108fc0291906000818181858888f193505050501580156104fc573d6000803e3d6000fd5b5060025460038301546001600160a01b03909116906108fc9061051f90846106fe565b6040518115909202916000818181858888f19350505050158015610547573d6000803e3d6000fd5b506004828101805460ff191660019081179091558354908401546040516323b872dd60e01b8152309381019390935233602484015260448301526001600160a01b0316906323b872dd90606401600060405180830381600087803b1580156105ae57600080fd5b505af11580156105c2573d6000803e3d6000fd5b50505050600282015460038301546001840154604080516001600160a01b0390941684526020840192909252908201527fa9a40dec7a304e5915d11358b968c1e8d365992abf20f82285d1df1b30c8e24c9060600161036b565b60006020828403121561062e57600080fd5b5035919050565b60008060006060848603121561064a57600080fd5b83356001600160a01b038116811461066157600080fd5b95602085013595506040909401359392505050565b634e487b7160e01b600052601160045260246000fd5b60008160001904831182151516156106a6576106a6610676565b500290565b6000826106c857634e487b7160e01b600052601260045260246000fd5b500490565b600082198211156106e0576106e0610676565b500190565b6000600182016106f7576106f7610676565b5060010190565b60008282101561071057610710610676565b50039056fea26469706673582212205fd106a42ea761fe4b07a41e0b6b3017b84bc15a298ef24ec23a7ad572c327a464736f6c634300080e0033",
  "immutableReferences": {},
  "source": "pragma solidity ^0.8.0;\r\n// import dependencies\r\nimport \"@openzeppelin/contracts/utils/Strings.sol\";\r\nimport \"@openzeppelin/contracts/token/ERC721/IERC721.sol\";\r\n// import \"./Token.sol\";\r\n\r\ncontract MarketPlace{\r\n    // total number of uploaded items\r\n    uint public itemsCount;\r\n    // a mapping of number of items to the items\r\n    mapping(uint=>Item) public itemsForSale;\r\n    // a mapping of id of items to the item\r\n    // mapping(uint=>Item) public itemId_Item;\r\n    // variables modified by deployer\r\n    address payable public feeBank;\r\n    uint public percentage;\r\n    // description of an nft item on the marketplace\r\n    struct Item{\r\n        IERC721 item;\r\n        uint id;\r\n        address payable creator;\r\n        uint price;\r\n        bool sold;\r\n    }\r\n    // event emitted when seller uploads nft to marketplace\r\n    event Uploaded(address market,uint price,uint itemId);\r\n    // event emitted when buyer nuys nft from marketplace\r\n    event Bought(address seller,uint price,uint itemId);\r\n    // deployer gives the fees address and the percentage of fee per item\r\n    constructor(uint feePercent){\r\n        feeBank=payable(msg.sender);\r\n        percentage=feePercent;\r\n    }\r\n    // seller uploads nft to marketplace (accepts as arguments NFT instance,tokenId, and price)\r\n    function uploadNFT(IERC721 nft,uint itemId,uint price) public{\r\n        // price of an item cannot be negative\r\n        require(price>=0,\"Enter a valid price\");\r\n        // transfer ownership to the marketplace needs the approve function called\r\n        nft.transferFrom(msg.sender,address(this),itemId);\r\n        // increase the item count\r\n        itemsCount++;\r\n        // map the item count to its id\r\n        itemsForSale[itemsCount]=Item({\r\n            item:nft,\r\n            id:itemId,\r\n            creator:payable(msg.sender),\r\n            price:price,\r\n            sold:false\r\n        });\r\n\r\n        // emit the uploaded event\r\n        emit Uploaded(address(this),price,itemId);\r\n    }\r\n    // buyer buys nft\r\n    function buyNFT(uint itemNumber)public payable{\r\n        // get the item object using the number\r\n        Item storage item=itemsForSale[itemNumber];\r\n        // get the total fee (price of the item + market fee)\r\n        uint totalPrice=calc_totalFee(itemNumber);\r\n        // item must be among those listed on the marketplace\r\n        require(itemNumber>0 && itemNumber<=itemsCount,'Please enter a valid id');\r\n        // item should not have been sold\r\n        require (!(item.sold),'This item is not available for sale');\r\n        // buyer must have enough ether to cover both price and market fee\r\n        require (msg.value>=totalPrice,'You do not have enough ether to purchase this item');\r\n        // transfer price to creator of the nft\r\n        item.creator.transfer(item.price);\r\n        // transfer market fee\r\n        feeBank.transfer(totalPrice-item.price);\r\n        // update the sold attribute\r\n        item.sold=true;\r\n        // finally transfer the nft from the marketplace to the buyer\r\n        item.item.transferFrom(address(this),msg.sender,item.id);\r\n        // event emitted when buyer buys nft\r\n        emit Bought(item.creator,item.price,item.id);\r\n\r\n    }\r\n    // calculate the total fee for buyer\r\n    function calc_totalFee(uint itemNumber) public view returns(uint){\r\n        uint amount=itemsForSale[itemNumber].price;\r\n        uint ans=(amount+(amount*percentage/100));\r\n        return ans;\r\n    }\r\n}\r\n",
  "sourcePath": "C:\\Users\\DADA\\Desktop\\nft-marketplace\\src\\contracts\\MarketPlace.sol",
  "compiler": {
    "name": "solc",
    "version": "0.8.14+commit.80d49f37.Emscripten.clang"
  },
  "schemaVersion": "3.4.7",
  "updatedAt": "2022-05-22T22:02:56.612Z",
  "networkType": "ethereum",
  "devdoc": {
    "kind": "dev",
    "methods": {},
    "version": 1
  },
  "userdoc": {
    "kind": "user",
    "methods": {},
    "version": 1
  }
}