{
  "contractName": "MarketPlace",
  "abi": [
    {
      "inputs": [
        {
          "internalType": "uint256",
          "name": "feePercent",
          "type": "uint256"
        }
      ],
      "stateMutability": "nonpayable",
      "type": "constructor"
    },
    {
      "anonymous": false,
      "inputs": [
        {
          "indexed": false,
          "internalType": "address",
          "name": "seller",
          "type": "address"
        },
        {
          "indexed": false,
          "internalType": "uint256",
          "name": "price",
          "type": "uint256"
        },
        {
          "indexed": false,
          "internalType": "uint256",
          "name": "itemId",
          "type": "uint256"
        },
        {
          "indexed": true,
          "internalType": "address",
          "name": "adress",
          "type": "address"
        }
      ],
      "name": "Bought",
      "type": "event"
    },
    {
      "anonymous": false,
      "inputs": [
        {
          "indexed": false,
          "internalType": "address",
          "name": "market",
          "type": "address"
        },
        {
          "indexed": false,
          "internalType": "uint256",
          "name": "price",
          "type": "uint256"
        },
        {
          "indexed": false,
          "internalType": "uint256",
          "name": "itemId",
          "type": "uint256"
        },
        {
          "indexed": true,
          "internalType": "address",
          "name": "adress",
          "type": "address"
        }
      ],
      "name": "Uploaded",
      "type": "event"
    },
    {
      "inputs": [],
      "name": "feeBank",
      "outputs": [
        {
          "internalType": "address payable",
          "name": "",
          "type": "address"
        }
      ],
      "stateMutability": "view",
      "type": "function",
      "constant": true
    },
    {
      "inputs": [],
      "name": "itemsCount",
      "outputs": [
        {
          "internalType": "uint256",
          "name": "",
          "type": "uint256"
        }
      ],
      "stateMutability": "view",
      "type": "function",
      "constant": true
    },
    {
      "inputs": [
        {
          "internalType": "uint256",
          "name": "",
          "type": "uint256"
        }
      ],
      "name": "itemsForSale",
      "outputs": [
        {
          "internalType": "contract IERC721",
          "name": "item",
          "type": "address"
        },
        {
          "internalType": "uint256",
          "name": "id",
          "type": "uint256"
        },
        {
          "internalType": "address payable",
          "name": "creator",
          "type": "address"
        },
        {
          "internalType": "uint256",
          "name": "price",
          "type": "uint256"
        },
        {
          "internalType": "bool",
          "name": "sold",
          "type": "bool"
        }
      ],
      "stateMutability": "view",
      "type": "function",
      "constant": true
    },
    {
      "inputs": [],
      "name": "percentage",
      "outputs": [
        {
          "internalType": "uint256",
          "name": "",
          "type": "uint256"
        }
      ],
      "stateMutability": "view",
      "type": "function",
      "constant": true
    },
    {
      "inputs": [
        {
          "internalType": "contract IERC721",
          "name": "nft",
          "type": "address"
        },
        {
          "internalType": "uint256",
          "name": "itemId",
          "type": "uint256"
        },
        {
          "internalType": "uint256",
          "name": "price",
          "type": "uint256"
        }
      ],
      "name": "uploadNFT",
      "outputs": [],
      "stateMutability": "nonpayable",
      "type": "function"
    },
    {
      "inputs": [
        {
          "internalType": "uint256",
          "name": "itemNumber",
          "type": "uint256"
        }
      ],
      "name": "buyNFT",
      "outputs": [],
      "stateMutability": "payable",
      "type": "function",
      "payable": true
    },
    {
      "inputs": [
        {
          "internalType": "uint256",
          "name": "itemNumber",
          "type": "uint256"
        }
      ],
      "name": "removeNFT",
      "outputs": [],
      "stateMutability": "nonpayable",
      "type": "function"
    },
    {
      "inputs": [
        {
          "internalType": "uint256",
          "name": "itemNumber",
          "type": "uint256"
        }
      ],
      "name": "calc_totalFee",
      "outputs": [
        {
          "internalType": "uint256",
          "name": "",
          "type": "uint256"
        }
      ],
      "stateMutability": "view",
      "type": "function",
      "constant": true
    }
  ],
  "bytecode": "0x608060405234801561001057600080fd5b506040516108e33803806108e383398101604081905261002f91610049565b600280546001600160a01b03191633179055600355610062565b60006020828403121561005b57600080fd5b5051919050565b610872806100716000396000f3fe60806040526004361061007b5760003560e01c8063af15d7861161004e578063af15d7861461017c578063c78ad77f146101b4578063e2c03ace146101ca578063ee4739cb146101e057600080fd5b8063092d0afc146100805780632fc0c3fc1461011957806338fba7ac1461014757806351ed828814610169575b600080fd5b34801561008c57600080fd5b506100db61009b366004610743565b6001602081905260009182526040909120805491810154600282015460038301546004909301546001600160a01b03948516949293919092169160ff1685565b604080516001600160a01b039687168152602081019590955292909416918301919091526060820152901515608082015260a0015b60405180910390f35b34801561012557600080fd5b50610139610134366004610743565b610200565b604051908152602001610110565b34801561015357600080fd5b5061016761016236600461075c565b610241565b005b610167610177366004610743565b6103a5565b34801561018857600080fd5b5060025461019c906001600160a01b031681565b6040516001600160a01b039091168152602001610110565b3480156101c057600080fd5b5061013960035481565b3480156101d657600080fd5b5061013960005481565b3480156101ec57600080fd5b506101676101fb366004610743565b61064b565b60008181526001602052604081206003908101549054829060649061022590846107b3565b61022f91906107d2565b61023990836107f4565b949350505050565b61024f565b60405180910390fd5b6040516323b872dd60e01b8152336004820152306024820152604481018390526001600160a01b038416906323b872dd90606401600060405180830381600087803b15801561029d57600080fd5b505af11580156102b1573d6000803e3d6000fd5b50506000805492509050806102c58361080c565b90915550506040805160a0810182526001600160a01b0385811682526020808301868152338486018181526060808701898152600060808901818152815482526001808952918b902099518a546001600160a01b0319908116918b16919091178b559651918a019190915592516002890180549096169716969096179093559351600386015592516004909401805460ff1916941515949094179093558351308152908101859052928301859052917f306bfe0a5f0c4071ae2a529beae47f1fa29d4c572eb4b9fff3cfd1d92afa775f91015b60405180910390a2505050565b6000818152600160205260408120906103bd83610200565b90506000831180156103d157506000548311155b61041d5760405162461bcd60e51b815260206004820152601760248201527f506c6561736520656e74657220612076616c69642069640000000000000000006044820152606401610246565b600482015460ff161561047e5760405162461bcd60e51b815260206004820152602360248201527f54686973206974656d206973206e6f7420617661696c61626c6520666f722073604482015262616c6560e81b6064820152608401610246565b803410156104e95760405162461bcd60e51b815260206004820152603260248201527f596f7520646f206e6f74206861766520656e6f75676820657468657220746f2060448201527170757263686173652074686973206974656d60701b6064820152608401610246565b600282015460038301546040516001600160a01b039092169181156108fc0291906000818181858888f19350505050158015610529573d6000803e3d6000fd5b5060025460038301546001600160a01b03909116906108fc9061054c9084610825565b6040518115909202916000818181858888f19350505050158015610574573d6000803e3d6000fd5b506004828101805460ff191660019081179091558354908401546040516323b872dd60e01b8152309381019390935233602484015260448301526001600160a01b0316906323b872dd90606401600060405180830381600087803b1580156105db57600080fd5b505af11580156105ef573d6000803e3d6000fd5b50505050600282015460038301546001840154604080516001600160a01b03909416845260208401929092529082015233907f67b0c0cb1a04be5ec6d6e63cfe012c3bf506e0df78f86a03d754a6f22d8cc0bc90606001610398565b60008181526001602052604090206002015481906001600160a01b031633146106af5760405162461bcd60e51b81526020600482015260166024820152754f6e6c79206f776e65722063616e20646f207468697360501b6044820152606401610246565b60008281526001602081905260409182902080549181015492516323b872dd60e01b81523060048201523360248201526044810193909352916001600160a01b03909116906323b872dd90606401600060405180830381600087803b15801561071757600080fd5b505af115801561072b573d6000803e3d6000fd5b5050506004909101805460ff19166001179055505050565b60006020828403121561075557600080fd5b5035919050565b60008060006060848603121561077157600080fd5b83356001600160a01b038116811461078857600080fd5b95602085013595506040909401359392505050565b634e487b7160e01b600052601160045260246000fd5b60008160001904831182151516156107cd576107cd61079d565b500290565b6000826107ef57634e487b7160e01b600052601260045260246000fd5b500490565b600082198211156108075761080761079d565b500190565b60006001820161081e5761081e61079d565b5060010190565b6000828210156108375761083761079d565b50039056fea2646970667358221220800be0df8942fc6f056a7f333c98c156af6261d592c0794e950413a78dffbbe764736f6c634300080e0033",
  "immutableReferences": {},
  "source": "pragma solidity ^0.8.0;\r\n// import dependencies\r\nimport \"@openzeppelin/contracts/utils/Strings.sol\";\r\nimport \"@openzeppelin/contracts/token/ERC721/IERC721.sol\";\r\n// import \"./Token.sol\";\r\n\r\ncontract MarketPlace{\r\n    // total number of uploaded items\r\n    uint public itemsCount;\r\n    // a mapping of number of items to the items\r\n    mapping(uint=>Item) public itemsForSale;\r\n    // a mapping of id of items to the item\r\n    // mapping(uint=>Item) public itemId_Item;\r\n    // variables modified by deployer\r\n    address payable public feeBank;\r\n    uint public percentage;\r\n    // description of an nft item on the marketplace\r\n    struct Item{\r\n        IERC721 item;\r\n        uint id;\r\n        address payable creator;\r\n        uint price;\r\n        bool sold;\r\n    }\r\n    // event emitted when seller uploads nft to marketplace\r\n    event Uploaded(address market,uint price,uint itemId,address indexed adress);\r\n    // event emitted when buyer nuys nft from marketplace\r\n    event Bought(address seller,uint price,uint itemId,address indexed adress);\r\n    // deployer gives the fees address and the percentage of fee per item\r\n    constructor(uint feePercent){\r\n        feeBank=payable(msg.sender);\r\n        percentage=feePercent;\r\n    }\r\n    // modifier for only owner of NFT\r\n    modifier onlyOwner(uint itemNumber) {\r\n      require(msg.sender == itemsForSale[itemNumber].creator,'Only owner can do this');\r\n      _;\r\n    }\r\n    // seller uploads nft to marketplace (accepts as arguments NFT instance,tokenId, and price)\r\n    function uploadNFT(IERC721 nft,uint itemId,uint price) public{\r\n        // price of an item cannot be negative\r\n        require(price>=0,\"Enter a valid price\");\r\n        // transfer ownership to the marketplace needs the approve function called\r\n        nft.transferFrom(msg.sender,address(this),itemId);\r\n        // increase the item count\r\n        itemsCount++;\r\n        // map the item count to its id\r\n        itemsForSale[itemsCount]=Item({\r\n            item:nft,\r\n            id:itemId,\r\n            creator:payable(msg.sender),\r\n            price:price,\r\n            sold:false\r\n        });\r\n\r\n        // emit the uploaded event\r\n        emit Uploaded(address(this),price,itemId,msg.sender);\r\n    }\r\n    // buyer buys nft\r\n    function buyNFT(uint itemNumber)public payable{\r\n        // get the item object using the number\r\n        Item storage item=itemsForSale[itemNumber];\r\n        // get the total fee (price of the item + market fee)\r\n        uint totalPrice=calc_totalFee(itemNumber);\r\n        // item must be among those listed on the marketplace\r\n        require(itemNumber>0 && itemNumber<=itemsCount,'Please enter a valid id');\r\n        // item should not have been sold\r\n        require (!(item.sold),'This item is not available for sale');\r\n        // buyer must have enough ether to cover both price and market fee\r\n        require (msg.value>=totalPrice,'You do not have enough ether to purchase this item');\r\n        // transfer price to creator of the nft\r\n        item.creator.transfer(item.price);\r\n        // transfer market fee\r\n        feeBank.transfer(totalPrice-item.price);\r\n        // update the sold attribute\r\n        item.sold=true;\r\n        // finally transfer the nft from the marketplace to the buyer\r\n        item.item.transferFrom(address(this),msg.sender,item.id);\r\n        // event emitted when buyer buys nft\r\n        emit Bought(item.creator,item.price,item.id,msg.sender);\r\n    }\r\n    function removeNFT(uint itemNumber)public onlyOwner(itemNumber){\r\n        Item storage itm=itemsForSale[itemNumber];\r\n        itm.item.transferFrom(address(this),msg.sender,itm.id);\r\n        itm.sold=true;\r\n    }\r\n    // calculate the total fee for buyer\r\n    function calc_totalFee(uint itemNumber) public view returns(uint){\r\n        uint amount=itemsForSale[itemNumber].price;\r\n        uint ans=(amount+(amount*percentage/100));\r\n        return ans;\r\n    }\r\n}\r\n",
  "sourcePath": "C:\\Users\\DADA\\Desktop\\nft-marketplace\\src\\contracts\\MarketPlace.sol",
  "compiler": {
    "name": "solc",
    "version": "0.8.14+commit.80d49f37.Emscripten.clang"
  },
  "schemaVersion": "3.4.7",
  "updatedAt": "2022-05-26T12:46:49.256Z",
  "networkType": "ethereum",
  "devdoc": {
    "kind": "dev",
    "methods": {},
    "version": 1
  },
  "userdoc": {
    "kind": "user",
    "methods": {},
    "version": 1
  }
}