{
  "contractName": "MarketPlace",
  "abi": [
    {
      "inputs": [
        {
          "internalType": "uint256",
          "name": "feePercent",
          "type": "uint256"
        }
      ],
      "stateMutability": "nonpayable",
      "type": "constructor"
    },
    {
      "anonymous": false,
      "inputs": [
        {
          "indexed": false,
          "internalType": "address",
          "name": "seller",
          "type": "address"
        },
        {
          "indexed": false,
          "internalType": "uint256",
          "name": "price",
          "type": "uint256"
        },
        {
          "indexed": false,
          "internalType": "uint256",
          "name": "itemId",
          "type": "uint256"
        },
        {
          "indexed": false,
          "internalType": "string",
          "name": "name",
          "type": "string"
        }
      ],
      "name": "Bought",
      "type": "event"
    },
    {
      "anonymous": false,
      "inputs": [
        {
          "indexed": false,
          "internalType": "address",
          "name": "market",
          "type": "address"
        },
        {
          "indexed": false,
          "internalType": "uint256",
          "name": "price",
          "type": "uint256"
        },
        {
          "indexed": false,
          "internalType": "uint256",
          "name": "itemId",
          "type": "uint256"
        },
        {
          "indexed": false,
          "internalType": "string",
          "name": "name",
          "type": "string"
        }
      ],
      "name": "Uploaded",
      "type": "event"
    },
    {
      "inputs": [],
      "name": "feeBank",
      "outputs": [
        {
          "internalType": "address payable",
          "name": "",
          "type": "address"
        }
      ],
      "stateMutability": "view",
      "type": "function",
      "constant": true
    },
    {
      "inputs": [
        {
          "internalType": "uint256",
          "name": "",
          "type": "uint256"
        }
      ],
      "name": "itemId_Item",
      "outputs": [
        {
          "internalType": "contract IERC721",
          "name": "item",
          "type": "address"
        },
        {
          "internalType": "uint256",
          "name": "id",
          "type": "uint256"
        },
        {
          "internalType": "string",
          "name": "name",
          "type": "string"
        },
        {
          "internalType": "address payable",
          "name": "creator",
          "type": "address"
        },
        {
          "internalType": "uint256",
          "name": "price",
          "type": "uint256"
        },
        {
          "internalType": "bool",
          "name": "sold",
          "type": "bool"
        }
      ],
      "stateMutability": "view",
      "type": "function",
      "constant": true
    },
    {
      "inputs": [],
      "name": "itemsCount",
      "outputs": [
        {
          "internalType": "uint256",
          "name": "",
          "type": "uint256"
        }
      ],
      "stateMutability": "view",
      "type": "function",
      "constant": true
    },
    {
      "inputs": [
        {
          "internalType": "uint256",
          "name": "",
          "type": "uint256"
        }
      ],
      "name": "itemsForSale",
      "outputs": [
        {
          "internalType": "uint256",
          "name": "",
          "type": "uint256"
        }
      ],
      "stateMutability": "view",
      "type": "function",
      "constant": true
    },
    {
      "inputs": [],
      "name": "percentage",
      "outputs": [
        {
          "internalType": "uint256",
          "name": "",
          "type": "uint256"
        }
      ],
      "stateMutability": "view",
      "type": "function",
      "constant": true
    },
    {
      "inputs": [
        {
          "internalType": "contract IERC721",
          "name": "nft",
          "type": "address"
        },
        {
          "internalType": "uint256",
          "name": "itemId",
          "type": "uint256"
        },
        {
          "internalType": "uint256",
          "name": "price",
          "type": "uint256"
        },
        {
          "internalType": "string",
          "name": "name",
          "type": "string"
        }
      ],
      "name": "uploadNFT",
      "outputs": [],
      "stateMutability": "nonpayable",
      "type": "function"
    },
    {
      "inputs": [
        {
          "internalType": "uint256",
          "name": "itemNumber",
          "type": "uint256"
        }
      ],
      "name": "buyNFT",
      "outputs": [],
      "stateMutability": "payable",
      "type": "function",
      "payable": true
    },
    {
      "inputs": [
        {
          "internalType": "uint256",
          "name": "itemNumber",
          "type": "uint256"
        }
      ],
      "name": "calc_totalFee",
      "outputs": [
        {
          "internalType": "uint256",
          "name": "",
          "type": "uint256"
        }
      ],
      "stateMutability": "view",
      "type": "function",
      "constant": true
    },
    {
      "inputs": [
        {
          "internalType": "uint256",
          "name": "marketId",
          "type": "uint256"
        }
      ],
      "name": "getItem",
      "outputs": [
        {
          "internalType": "string[3]",
          "name": "",
          "type": "string[3]"
        }
      ],
      "stateMutability": "view",
      "type": "function",
      "constant": true
    }
  ],
  "bytecode": "0x608060405234801561001057600080fd5b50604051610f18380380610f1883398101604081905261002f91610049565b600380546001600160a01b03191633179055600455610062565b60006020828403121561005b57600080fd5b5051919050565b610ea7806100716000396000f3fe6080604052600436106100865760003560e01c806351ed82881161005957806351ed82881461013a578063af15d7861461014d578063c78ad77f14610185578063e2c03ace1461019b578063f9361269146101b157600080fd5b8063092d0afc1461008b5780630b6f638f146100cb5780632fc0c3fc146100ed5780633129e7731461010d575b600080fd5b34801561009757600080fd5b506100b86100a6366004610a73565b60016020526000908152604090205481565b6040519081526020015b60405180910390f35b3480156100d757600080fd5b506100eb6100e6366004610aa2565b6101e3565b005b3480156100f957600080fd5b506100b8610108366004610a73565b610385565b34801561011957600080fd5b5061012d610128366004610a73565b6103d3565b6040516100c29190610bd2565b6100eb610148366004610a73565b610522565b34801561015957600080fd5b5060035461016d906001600160a01b031681565b6040516001600160a01b0390911681526020016100c2565b34801561019157600080fd5b506100b860045481565b3480156101a757600080fd5b506100b860005481565b3480156101bd57600080fd5b506101d16101cc366004610a73565b6107da565b6040516100c296959493929190610c1f565b6101f1565b60405180910390fd5b6040516323b872dd60e01b8152336004820152306024820152604481018490526001600160a01b038516906323b872dd90606401600060405180830381600087803b15801561023f57600080fd5b505af1158015610253573d6000803e3d6000fd5b505060008054925090508061026783610c7c565b9091555050600080548152600160208181526040808420879055805160c0810182526001600160a01b038981168252818401898152828401888152336060850152608084018a905260a084018890528a8852600280875294909720835181546001600160a01b03191693169290921782555194810194909455935180516102f6939285019291909101906109b3565b5060608201516003820180546001600160a01b0319166001600160a01b039092169190911790556080820151600482015560a0909101516005909101805460ff19169115159190911790556040517f344065224ef573e6fe03caeac093dac24808c8a889678b8cd6ae3e5a7e43a63990610377903090859087908690610c95565b60405180910390a150505050565b600081815260016020908152604080832054835260029091528120600490810154905482906064906103b79084610ccc565b6103c19190610d01565b6103cb9083610d15565b949350505050565b6103db610a37565b60008281526001602081815260408084205484526002808352818520825160c08101845281546001600160a01b031681529481015493850193909352820180549184019161042890610d2d565b80601f016020809104026020016040519081016040528092919081815260200182805461045490610d2d565b80156104a15780601f10610476576101008083540402835291602001916104a1565b820191906000526020600020905b81548152906001019060200180831161048457829003601f168201915b505050918352505060038201546001600160a01b0316602080830191909152600483015460408084019190915260059093015460ff16151560609283015282519182019092529082015191925060009181906104fc906108b2565b81526020018360400151815260200161051884608001516108b2565b9052949350505050565b6000818152600160209081526040808320548352600290915281209061054783610385565b905060008311801561055b57506000548311155b6105a75760405162461bcd60e51b815260206004820152601760248201527f506c6561736520656e74657220612076616c696420696400000000000000000060448201526064016101e8565b600582015460ff16156106085760405162461bcd60e51b815260206004820152602360248201527f54686973206974656d206973206e6f7420617661696c61626c6520666f722073604482015262616c6560e81b60648201526084016101e8565b803410156106735760405162461bcd60e51b815260206004820152603260248201527f596f7520646f206e6f74206861766520656e6f75676820657468657220746f2060448201527170757263686173652074686973206974656d60701b60648201526084016101e8565b600382015460048301546040516001600160a01b039092169181156108fc0291906000818181858888f193505050501580156106b3573d6000803e3d6000fd5b5060035460048301546001600160a01b03909116906108fc906106d69084610d67565b6040518115909202916000818181858888f193505050501580156106fe573d6000803e3d6000fd5b5060058201805460ff191660019081179091558254908301546040516323b872dd60e01b815230600482015233602482015260448101919091526001600160a01b03909116906323b872dd90606401600060405180830381600087803b15801561076757600080fd5b505af115801561077b573d6000803e3d6000fd5b5050506003830154600484015460018501546040517f45dbad840d1ff9fe747d79cfa0d1a38a7a60c3b2e37e7989cdcab130d686880394506107cd936001600160a01b03169291906002880190610d7e565b60405180910390a1505050565b60026020819052600091825260409091208054600182015492820180546001600160a01b0390921693929161080e90610d2d565b80601f016020809104026020016040519081016040528092919081815260200182805461083a90610d2d565b80156108875780601f1061085c57610100808354040283529160200191610887565b820191906000526020600020905b81548152906001019060200180831161086a57829003601f168201915b505050506003830154600484015460059094015492936001600160a01b039091169290915060ff1686565b6060816000036108d95750506040805180820190915260018152600360fc1b602082015290565b8160005b811561090357806108ed81610c7c565b91506108fc9050600a83610d01565b91506108dd565b60008167ffffffffffffffff81111561091e5761091e610a8c565b6040519080825280601f01601f191660200182016040528015610948576020820181803683370190505b5090505b84156103cb5761095d600183610d67565b915061096a600a86610e47565b610975906030610d15565b60f81b81838151811061098a5761098a610e5b565b60200101906001600160f81b031916908160001a9053506109ac600a86610d01565b945061094c565b8280546109bf90610d2d565b90600052602060002090601f0160209004810192826109e15760008555610a27565b82601f106109fa57805160ff1916838001178555610a27565b82800160010185558215610a27579182015b82811115610a27578251825591602001919060010190610a0c565b50610a33929150610a5e565b5090565b60405180606001604052806003905b6060815260200190600190039081610a465790505090565b5b80821115610a335760008155600101610a5f565b600060208284031215610a8557600080fd5b5035919050565b634e487b7160e01b600052604160045260246000fd5b60008060008060808587031215610ab857600080fd5b84356001600160a01b0381168114610acf57600080fd5b93506020850135925060408501359150606085013567ffffffffffffffff80821115610afa57600080fd5b818701915087601f830112610b0e57600080fd5b813581811115610b2057610b20610a8c565b604051601f8201601f19908116603f01168101908382118183101715610b4857610b48610a8c565b816040528281528a6020848701011115610b6157600080fd5b82602086016020830137600060208483010152809550505050505092959194509250565b6000815180845260005b81811015610bab57602081850181015186830182015201610b8f565b81811115610bbd576000602083870101525b50601f01601f19169290920160200192915050565b60208082526000906080830183820185845b6003811015610c1357601f19878503018352610c01848351610b85565b93509184019190840190600101610be4565b50919695505050505050565b600060018060a01b03808916835287602084015260c06040840152610c4760c0840188610b85565b95166060830152506080810192909252151560a0909101529392505050565b634e487b7160e01b600052601160045260246000fd5b600060018201610c8e57610c8e610c66565b5060010190565b60018060a01b0385168152836020820152826040820152608060608201526000610cc26080830184610b85565b9695505050505050565b6000816000190483118215151615610ce657610ce6610c66565b500290565b634e487b7160e01b600052601260045260246000fd5b600082610d1057610d10610ceb565b500490565b60008219821115610d2857610d28610c66565b500190565b600181811c90821680610d4157607f821691505b602082108103610d6157634e487b7160e01b600052602260045260246000fd5b50919050565b600082821015610d7957610d79610c66565b500390565b6001600160a01b0385168152602080820185905260408201849052608060608301528254600091908290600181811c9082811680610dbd57607f831692505b8583108103610dda57634e487b7160e01b85526022600452602485fd5b6080880183905260a08801818015610df95760018114610e0a57610e35565b60ff19861682528782019650610e35565b60008b81526020902060005b86811015610e2f57815484820152908501908901610e16565b83019750505b50949c9b505050505050505050505050565b600082610e5657610e56610ceb565b500690565b634e487b7160e01b600052603260045260246000fdfea264697066735822122065d1a7fb6b3cba3e50e5e27a2bc784c488cddd9f9fc75bb2b1f36e903b02060a64736f6c634300080e0033",
  "immutableReferences": {},
  "source": "pragma solidity ^0.8.0;\r\n// import dependencies\r\nimport \"@openzeppelin/contracts/utils/Strings.sol\";\r\nimport \"@openzeppelin/contracts/token/ERC721/IERC721.sol\";\r\n// import \"./Token.sol\";\r\n\r\ncontract MarketPlace{\r\n    // total number of uploaded items\r\n    uint public itemsCount;\r\n    // a mapping of number of items to id of the items\r\n    mapping(uint=>uint) public itemsForSale;\r\n    // a mapping of id of items to the item\r\n    mapping(uint=>Item) public itemId_Item;\r\n    // variables modified by deployer\r\n    address payable public feeBank;\r\n    uint public percentage;\r\n    // description of an nft item on the marketplace\r\n    struct Item{\r\n        IERC721 item;\r\n        uint id;\r\n        string name;\r\n        address payable creator;\r\n        uint price;\r\n        bool sold;\r\n    }\r\n    // event emitted when seller uploads nft to marketplace\r\n    event Uploaded(address market,uint price,uint itemId,string name);\r\n    // event emitted when buyer nuys nft from marketplace\r\n    event Bought(address seller,uint price,uint itemId,string name);\r\n    // deployer gives the fees address and the percentage of fee per item\r\n    constructor(uint feePercent){\r\n        feeBank=payable(msg.sender);\r\n        percentage=feePercent;\r\n    }\r\n    // seller uploads nft to marketplace (accepts as arguments NFT instance,tokenId, and price)\r\n    function uploadNFT(IERC721 nft,uint itemId,uint price,string memory name) public{\r\n        // price of an item cannot be negative\r\n        require(price>=0,\"Enter a valid price\");\r\n        // transfer ownership to the marketplace needs the approve function called\r\n        nft.transferFrom(msg.sender,address(this),itemId);\r\n        // increase the item count\r\n        itemsCount++;\r\n        // map the item count to its id\r\n        itemsForSale[itemsCount]=itemId;\r\n        // map the id to the item\r\n        itemId_Item[itemId]=Item({\r\n            item:nft,\r\n            id:itemId,\r\n            name:name,\r\n            creator:payable(msg.sender),\r\n            price:price,\r\n            sold:false\r\n        });\r\n        // emit the uploaded event\r\n        emit Uploaded(address(this),price,itemId,name);\r\n    }\r\n    // buyer buys nft\r\n    function buyNFT(uint itemNumber)public payable{\r\n        // get the item object using the number\r\n        Item storage item=itemId_Item[itemsForSale[itemNumber]];\r\n        // get the total fee (price of the item + market fee)\r\n        uint totalPrice=calc_totalFee(itemNumber);\r\n        // item must be among those listed on the marketplace\r\n        require(itemNumber>0 && itemNumber<=itemsCount,'Please enter a valid id');\r\n        // item should not have been sold\r\n        require (!(item.sold),'This item is not available for sale');\r\n        // buyer must have enough ether to cover both price and market fee\r\n        require (msg.value>=totalPrice,'You do not have enough ether to purchase this item');\r\n        // transfer price to creator of the nft\r\n        item.creator.transfer(item.price);\r\n        // transfer market fee\r\n        feeBank.transfer(totalPrice-item.price);\r\n        // update the sold attribute\r\n        item.sold=true;\r\n        // finally transfer the nft from the marketplace to the buyer\r\n        item.item.transferFrom(address(this),msg.sender,item.id);\r\n        // event emitted when buyer buys nft\r\n        emit Bought(item.creator,item.price,item.id,item.name);\r\n\r\n    }\r\n    // calculate the total fee for buyer\r\n    function calc_totalFee(uint itemNumber) public view returns(uint){\r\n        uint amount=itemId_Item[itemsForSale[itemNumber]].price;\r\n        uint ans=(amount+(amount*percentage/100));\r\n        return ans;\r\n    }\r\n    function getItem(uint marketId)public view returns(string[3] memory){\r\n        Item memory itm=itemId_Item[itemsForSale[marketId]];\r\n        string[3] memory result=[Strings.toString(itm.id),itm.name,Strings.toString(itm.price)];\r\n        return result;\r\n    }\r\n}\r\n",
  "sourcePath": "C:\\Users\\DADA\\Desktop\\nft-marketplace\\src\\contracts\\MarketPlace.sol",
  "compiler": {
    "name": "solc",
    "version": "0.8.14+commit.80d49f37.Emscripten.clang"
  },
  "schemaVersion": "3.4.7",
  "updatedAt": "2022-05-18T16:57:11.490Z",
  "networkType": "ethereum",
  "devdoc": {
    "kind": "dev",
    "methods": {},
    "version": 1
  },
  "userdoc": {
    "kind": "user",
    "methods": {},
    "version": 1
  }
}