{
  "contractName": "MarketPlace",
  "abi": [
    {
      "inputs": [
        {
          "internalType": "uint256",
          "name": "feePercent",
          "type": "uint256"
        }
      ],
      "stateMutability": "nonpayable",
      "type": "constructor"
    },
    {
      "anonymous": false,
      "inputs": [
        {
          "indexed": false,
          "internalType": "address",
          "name": "market",
          "type": "address"
        },
        {
          "indexed": false,
          "internalType": "uint256",
          "name": "price",
          "type": "uint256"
        },
        {
          "indexed": false,
          "internalType": "uint256",
          "name": "itemId",
          "type": "uint256"
        }
      ],
      "name": "Uploaded",
      "type": "event"
    },
    {
      "inputs": [],
      "name": "feeBank",
      "outputs": [
        {
          "internalType": "address payable",
          "name": "",
          "type": "address"
        }
      ],
      "stateMutability": "view",
      "type": "function",
      "constant": true
    },
    {
      "inputs": [
        {
          "internalType": "uint256",
          "name": "",
          "type": "uint256"
        }
      ],
      "name": "itemId_Item",
      "outputs": [
        {
          "internalType": "contract IERC721",
          "name": "item",
          "type": "address"
        },
        {
          "internalType": "uint256",
          "name": "id",
          "type": "uint256"
        },
        {
          "internalType": "address payable",
          "name": "creator",
          "type": "address"
        },
        {
          "internalType": "uint256",
          "name": "price",
          "type": "uint256"
        },
        {
          "internalType": "bool",
          "name": "sold",
          "type": "bool"
        }
      ],
      "stateMutability": "view",
      "type": "function",
      "constant": true
    },
    {
      "inputs": [
        {
          "internalType": "uint256",
          "name": "",
          "type": "uint256"
        }
      ],
      "name": "itemsForSale",
      "outputs": [
        {
          "internalType": "uint256",
          "name": "",
          "type": "uint256"
        }
      ],
      "stateMutability": "view",
      "type": "function",
      "constant": true
    },
    {
      "inputs": [],
      "name": "percentage",
      "outputs": [
        {
          "internalType": "uint256",
          "name": "",
          "type": "uint256"
        }
      ],
      "stateMutability": "view",
      "type": "function",
      "constant": true
    },
    {
      "inputs": [
        {
          "internalType": "contract IERC721",
          "name": "nft",
          "type": "address"
        },
        {
          "internalType": "uint256",
          "name": "itemId",
          "type": "uint256"
        },
        {
          "internalType": "uint256",
          "name": "price",
          "type": "uint256"
        }
      ],
      "name": "uploadNFT",
      "outputs": [],
      "stateMutability": "nonpayable",
      "type": "function"
    },
    {
      "inputs": [
        {
          "internalType": "uint256",
          "name": "itemNumber",
          "type": "uint256"
        }
      ],
      "name": "buyNFT",
      "outputs": [],
      "stateMutability": "payable",
      "type": "function",
      "payable": true
    },
    {
      "inputs": [
        {
          "internalType": "uint256",
          "name": "itemNumber",
          "type": "uint256"
        }
      ],
      "name": "calc_totalFee",
      "outputs": [
        {
          "internalType": "uint256",
          "name": "",
          "type": "uint256"
        }
      ],
      "stateMutability": "nonpayable",
      "type": "function"
    }
  ],
  "bytecode": "0x608060405234801561001057600080fd5b506040516107a43803806107a483398101604081905261002f91610049565b600380546001600160a01b03191633179055600455610062565b60006020828403121561005b57600080fd5b5051919050565b610733806100716000396000f3fe6080604052600436106100705760003560e01c806351ed82881161004e57806351ed8288146100f7578063af15d7861461010a578063c78ad77f14610142578063f93612691461015857600080fd5b8063092d0afc146100755780632fc0c3fc146100b557806338fba7ac146100d5575b600080fd5b34801561008157600080fd5b506100a2610090366004610604565b60016020526000908152604090205481565b6040519081526020015b60405180910390f35b3480156100c157600080fd5b506100a26100d0366004610604565b6101eb565b3480156100e157600080fd5b506100f56100f036600461061d565b610235565b005b6100f5610105366004610604565b6103a5565b34801561011657600080fd5b5060035461012a906001600160a01b031681565b6040516001600160a01b0390911681526020016100ac565b34801561014e57600080fd5b506100a260045481565b34801561016457600080fd5b506101b2610173366004610604565b6002602081905260009182526040909120805460018201549282015460038301546004909301546001600160a01b039283169493919092169160ff1685565b604080516001600160a01b039687168152602081019590955292909416918301919091526060820152901515608082015260a0016100ac565b6000818152600160209081526040808320548352600290915281206003015460045460649061021a9083610674565b6102249190610693565b61022e90826106b5565b9392505050565b610243565b60405180910390fd5b6040516323b872dd60e01b8152336004820152306024820152604481018390526001600160a01b038416906323b872dd90606401600060405180830381600087803b15801561029157600080fd5b505af11580156102a5573d6000803e3d6000fd5b50506000805492509050806102b9836106cd565b9091555050600080548152600160208181526040808420869055805160a0810182526001600160a01b0388811682528184018881523383850190815260608085018a8152608086018a81528c8b526002808a529a889020965187546001600160a01b031990811691881691909117885594519987019990995591519885018054909316989093169790971790559451600382015592516004909301805460ff19169315159390931790925581513081529081018490529081018490527fece2e1c9ec11683a70e4ad9c339e68af9270140bb56d723522662ccfa853c73c910160405180910390a1505050565b600081815260016020908152604080832054835260029091528120906103ca836101eb565b90506000831180156103de57506000548311155b61042a5760405162461bcd60e51b815260206004820152601760248201527f506c6561736520656e74657220612076616c6964206964000000000000000000604482015260640161023a565b600482015460ff161561048b5760405162461bcd60e51b815260206004820152602360248201527f54686973206974656d206973206e6f7420617661696c61626c6520666f722073604482015262616c6560e81b606482015260840161023a565b8034116104f55760405162461bcd60e51b815260206004820152603260248201527f596f7520646f206e6f74206861766520656e6f75676820657468657220746f2060448201527170757263686173652074686973206974656d60701b606482015260840161023a565b600282015460038301546040516001600160a01b039092169181156108fc0291906000818181858888f19350505050158015610535573d6000803e3d6000fd5b5060038054908301546001600160a01b03909116906108fc9061055890846106e6565b6040518115909202916000818181858888f19350505050158015610580573d6000803e3d6000fd5b506004828101805460ff191660019081179091558354908401546040516323b872dd60e01b8152309381019390935233602484015260448301526001600160a01b0316906323b872dd90606401600060405180830381600087803b1580156105e757600080fd5b505af11580156105fb573d6000803e3d6000fd5b50505050505050565b60006020828403121561061657600080fd5b5035919050565b60008060006060848603121561063257600080fd5b83356001600160a01b038116811461064957600080fd5b95602085013595506040909401359392505050565b634e487b7160e01b600052601160045260246000fd5b600081600019048311821515161561068e5761068e61065e565b500290565b6000826106b057634e487b7160e01b600052601260045260246000fd5b500490565b600082198211156106c8576106c861065e565b500190565b6000600182016106df576106df61065e565b5060010190565b6000828210156106f8576106f861065e565b50039056fea2646970667358221220c3f13b997b6e4f33583ebbe0f2a8608a2033ad95dd7e263466fb967c8edafb2964736f6c634300080d0033",
  "immutableReferences": {},
  "source": "pragma solidity ^0.8.0;\r\n// import dependencies\r\nimport \"@openzeppelin/contracts/token/ERC721/IERC721.sol\";\r\nimport \"./Token.sol\";\r\n\r\ncontract MarketPlace{\r\n    // total number of uploaded items\r\n    uint itemsCount;\r\n    // a mapping of number of items to id of the items\r\n    mapping(uint=>uint) public itemsForSale;\r\n    // a mapping of id of items to the item\r\n    mapping(uint=>Item) public itemId_Item;\r\n    // variables modified by deployer\r\n    address payable public feeBank;\r\n    uint public percentage;\r\n    // description of an nft item on the marketplace\r\n    struct Item{\r\n        IERC721 item;\r\n        uint id;\r\n        address payable creator;\r\n        uint price;\r\n        bool sold;\r\n    }\r\n    // event emitted when seller uploads nft to marketplace\r\n    event Uploaded(address market,uint price,uint itemId);\r\n    // deployer gives the fees address and the percentage of fee per item\r\n    constructor(uint feePercent){\r\n        feeBank=payable(msg.sender);\r\n        percentage=feePercent;\r\n    }\r\n    // seller uploads nft to marketplace (accepts as arguments NFT instance,tokenId, and price)\r\n    function uploadNFT(IERC721 nft,uint itemId,uint price) public{\r\n        // price of an item cannot be negative\r\n        require(price>=0,\"Enter a valid price\");\r\n        // transfer ownership to the marketplace needs the approve function called\r\n        nft.transferFrom(msg.sender,address(this),itemId);\r\n        // increase the item count\r\n        itemsCount++;\r\n        // map the item count to its id\r\n        itemsForSale[itemsCount]=itemId;\r\n        // map the id to the item\r\n        itemId_Item[itemId]=Item({\r\n            item:nft,\r\n            id:itemId,\r\n            creator:payable(msg.sender),\r\n            price:price,\r\n            sold:false\r\n        });\r\n        // emit the uploaded event\r\n        emit Uploaded(address(this),price,itemId);\r\n    }\r\n    // buyer buys nft\r\n    function buyNFT(uint itemNumber)public payable{\r\n        // get the item object using the number\r\n        Item storage item=itemId_Item[itemsForSale[itemNumber]];\r\n        // get the total fee (price of the item + market fee)\r\n        uint totalPrice=calc_totalFee(itemNumber);\r\n        // item must be among those listed on the marketplace\r\n        require(itemNumber>0 && itemNumber<=itemsCount,'Please enter a valid id');\r\n        // item should not have been sold\r\n        require (!(item.sold),'This item is not available for sale');\r\n        // buyer must have enough ether to cover both price and market fee\r\n        require (msg.value>totalPrice,'You do not have enough ether to purchase this item');\r\n        // transfer price to creator of the nft\r\n        item.creator.transfer(item.price);\r\n        // transfer market fee\r\n        feeBank.transfer(totalPrice-item.price);\r\n        // update the sold attribute\r\n        item.sold=true;\r\n        // finally transfer the nft from the marketplace to the buyer\r\n        item.item.transferFrom(address(this),msg.sender,item.id);\r\n\r\n    }\r\n    // calculate the total fee for buyer\r\n    function calc_totalFee(uint itemNumber) public returns(uint){\r\n        uint amount=itemId_Item[itemsForSale[itemNumber]].price;\r\n        return (amount+(amount*percentage/100));\r\n    }\r\n}\r\n",
  "sourcePath": "C:\\Users\\DADA\\Desktop\\nft-marketplace\\src\\contracts\\MarketPlace.sol",
  "compiler": {
    "name": "solc",
    "version": "0.8.13+commit.abaa5c0e.Emscripten.clang"
  },
  "schemaVersion": "3.4.5",
  "updatedAt": "2022-04-28T20:56:33.372Z",
  "networkType": "ethereum",
  "devdoc": {
    "kind": "dev",
    "methods": {},
    "version": 1
  },
  "userdoc": {
    "kind": "user",
    "methods": {},
    "version": 1
  }
}