{
  "contractName": "MarketPlace",
  "abi": [
    {
      "inputs": [
        {
          "internalType": "uint256",
          "name": "feePercent",
          "type": "uint256"
        }
      ],
      "stateMutability": "nonpayable",
      "type": "constructor"
    },
    {
      "anonymous": false,
      "inputs": [
        {
          "indexed": false,
          "internalType": "address",
          "name": "seller",
          "type": "address"
        },
        {
          "indexed": false,
          "internalType": "uint256",
          "name": "price",
          "type": "uint256"
        },
        {
          "indexed": false,
          "internalType": "uint256",
          "name": "itemId",
          "type": "uint256"
        },
        {
          "indexed": false,
          "internalType": "string",
          "name": "name",
          "type": "string"
        }
      ],
      "name": "Bought",
      "type": "event"
    },
    {
      "anonymous": false,
      "inputs": [
        {
          "indexed": false,
          "internalType": "address",
          "name": "market",
          "type": "address"
        },
        {
          "indexed": false,
          "internalType": "uint256",
          "name": "price",
          "type": "uint256"
        },
        {
          "indexed": false,
          "internalType": "uint256",
          "name": "itemId",
          "type": "uint256"
        },
        {
          "indexed": false,
          "internalType": "string",
          "name": "name",
          "type": "string"
        }
      ],
      "name": "Uploaded",
      "type": "event"
    },
    {
      "inputs": [],
      "name": "feeBank",
      "outputs": [
        {
          "internalType": "address payable",
          "name": "",
          "type": "address"
        }
      ],
      "stateMutability": "view",
      "type": "function",
      "constant": true
    },
    {
      "inputs": [
        {
          "internalType": "uint256",
          "name": "",
          "type": "uint256"
        }
      ],
      "name": "itemId_Item",
      "outputs": [
        {
          "internalType": "contract NFTToken",
          "name": "item",
          "type": "address"
        },
        {
          "internalType": "uint256",
          "name": "id",
          "type": "uint256"
        },
        {
          "internalType": "string",
          "name": "name",
          "type": "string"
        },
        {
          "internalType": "address payable",
          "name": "creator",
          "type": "address"
        },
        {
          "internalType": "uint256",
          "name": "price",
          "type": "uint256"
        },
        {
          "internalType": "bool",
          "name": "sold",
          "type": "bool"
        }
      ],
      "stateMutability": "view",
      "type": "function",
      "constant": true
    },
    {
      "inputs": [],
      "name": "itemsCount",
      "outputs": [
        {
          "internalType": "uint256",
          "name": "",
          "type": "uint256"
        }
      ],
      "stateMutability": "view",
      "type": "function",
      "constant": true
    },
    {
      "inputs": [
        {
          "internalType": "uint256",
          "name": "",
          "type": "uint256"
        }
      ],
      "name": "itemsForSale",
      "outputs": [
        {
          "internalType": "uint256",
          "name": "",
          "type": "uint256"
        }
      ],
      "stateMutability": "view",
      "type": "function",
      "constant": true
    },
    {
      "inputs": [],
      "name": "percentage",
      "outputs": [
        {
          "internalType": "uint256",
          "name": "",
          "type": "uint256"
        }
      ],
      "stateMutability": "view",
      "type": "function",
      "constant": true
    },
    {
      "inputs": [
        {
          "internalType": "contract NFTToken",
          "name": "nft",
          "type": "address"
        },
        {
          "internalType": "uint256",
          "name": "itemId",
          "type": "uint256"
        },
        {
          "internalType": "uint256",
          "name": "price",
          "type": "uint256"
        },
        {
          "internalType": "string",
          "name": "name",
          "type": "string"
        }
      ],
      "name": "uploadNFT",
      "outputs": [],
      "stateMutability": "nonpayable",
      "type": "function"
    },
    {
      "inputs": [
        {
          "internalType": "uint256",
          "name": "itemNumber",
          "type": "uint256"
        }
      ],
      "name": "buyNFT",
      "outputs": [],
      "stateMutability": "payable",
      "type": "function",
      "payable": true
    },
    {
      "inputs": [
        {
          "internalType": "uint256",
          "name": "itemNumber",
          "type": "uint256"
        }
      ],
      "name": "calc_totalFee",
      "outputs": [
        {
          "internalType": "uint256",
          "name": "",
          "type": "uint256"
        }
      ],
      "stateMutability": "view",
      "type": "function",
      "constant": true
    }
  ],
  "bytecode": "0x608060405234801561001057600080fd5b50604051610bea380380610bea83398101604081905261002f91610049565b600380546001600160a01b03191633179055600455610062565b60006020828403121561005b57600080fd5b5051919050565b610b79806100716000396000f3fe60806040526004361061007b5760003560e01c8063af15d7861161004e578063af15d78614610115578063c78ad77f1461014d578063e2c03ace14610163578063f93612691461017957600080fd5b8063092d0afc146100805780630b6f638f146100c05780632fc0c3fc146100e257806351ed828814610102575b600080fd5b34801561008c57600080fd5b506100ad61009b3660046107c4565b60016020526000908152604090205481565b6040519081526020015b60405180910390f35b3480156100cc57600080fd5b506100e06100db3660046107f3565b6101ab565b005b3480156100ee57600080fd5b506100ad6100fd3660046107c4565b61034d565b6100e06101103660046107c4565b61039b565b34801561012157600080fd5b50600354610135906001600160a01b031681565b6040516001600160a01b0390911681526020016100b7565b34801561015957600080fd5b506100ad60045481565b34801561016f57600080fd5b506100ad60005481565b34801561018557600080fd5b506101996101943660046107c4565b610653565b6040516100b796959493929190610923565b6101b9565b60405180910390fd5b6040516323b872dd60e01b8152336004820152306024820152604481018490526001600160a01b038516906323b872dd90606401600060405180830381600087803b15801561020757600080fd5b505af115801561021b573d6000803e3d6000fd5b505060008054925090508061022f83610980565b9091555050600080548152600160208181526040808420879055805160c0810182526001600160a01b038981168252818401898152828401888152336060850152608084018a905260a084018890528a8852600280875294909720835181546001600160a01b03191693169290921782555194810194909455935180516102be9392850192919091019061072b565b5060608201516003820180546001600160a01b0319166001600160a01b039092169190911790556080820151600482015560a0909101516005909101805460ff19169115159190911790556040517f344065224ef573e6fe03caeac093dac24808c8a889678b8cd6ae3e5a7e43a6399061033f903090859087908690610999565b60405180910390a150505050565b6000818152600160209081526040808320548352600290915281206004908101549054829060649061037f90846109d0565b61038991906109ef565b6103939083610a11565b949350505050565b600081815260016020908152604080832054835260029091528120906103c08361034d565b90506000831180156103d457506000548311155b6104205760405162461bcd60e51b815260206004820152601760248201527f506c6561736520656e74657220612076616c696420696400000000000000000060448201526064016101b0565b600582015460ff16156104815760405162461bcd60e51b815260206004820152602360248201527f54686973206974656d206973206e6f7420617661696c61626c6520666f722073604482015262616c6560e81b60648201526084016101b0565b803410156104ec5760405162461bcd60e51b815260206004820152603260248201527f596f7520646f206e6f74206861766520656e6f75676820657468657220746f2060448201527170757263686173652074686973206974656d60701b60648201526084016101b0565b600382015460048301546040516001600160a01b039092169181156108fc0291906000818181858888f1935050505015801561052c573d6000803e3d6000fd5b5060035460048301546001600160a01b03909116906108fc9061054f9084610a29565b6040518115909202916000818181858888f19350505050158015610577573d6000803e3d6000fd5b5060058201805460ff191660019081179091558254908301546040516323b872dd60e01b815230600482015233602482015260448101919091526001600160a01b03909116906323b872dd90606401600060405180830381600087803b1580156105e057600080fd5b505af11580156105f4573d6000803e3d6000fd5b5050506003830154600484015460018501546040517f45dbad840d1ff9fe747d79cfa0d1a38a7a60c3b2e37e7989cdcab130d68688039450610646936001600160a01b03169291906002880190610a7a565b60405180910390a1505050565b60026020819052600091825260409091208054600182015492820180546001600160a01b0390921693929161068790610a40565b80601f01602080910402602001604051908101604052809291908181526020018280546106b390610a40565b80156107005780601f106106d557610100808354040283529160200191610700565b820191906000526020600020905b8154815290600101906020018083116106e357829003601f168201915b505050506003830154600484015460059094015492936001600160a01b039091169290915060ff1686565b82805461073790610a40565b90600052602060002090601f016020900481019282610759576000855561079f565b82601f1061077257805160ff191683800117855561079f565b8280016001018555821561079f579182015b8281111561079f578251825591602001919060010190610784565b506107ab9291506107af565b5090565b5b808211156107ab57600081556001016107b0565b6000602082840312156107d657600080fd5b5035919050565b634e487b7160e01b600052604160045260246000fd5b6000806000806080858703121561080957600080fd5b84356001600160a01b038116811461082057600080fd5b93506020850135925060408501359150606085013567ffffffffffffffff8082111561084b57600080fd5b818701915087601f83011261085f57600080fd5b813581811115610871576108716107dd565b604051601f8201601f19908116603f01168101908382118183101715610899576108996107dd565b816040528281528a60208487010111156108b257600080fd5b82602086016020830137600060208483010152809550505050505092959194509250565b6000815180845260005b818110156108fc576020818501810151868301820152016108e0565b8181111561090e576000602083870101525b50601f01601f19169290920160200192915050565b600060018060a01b03808916835287602084015260c0604084015261094b60c08401886108d6565b95166060830152506080810192909252151560a0909101529392505050565b634e487b7160e01b600052601160045260246000fd5b6000600182016109925761099261096a565b5060010190565b60018060a01b03851681528360208201528260408201526080606082015260006109c660808301846108d6565b9695505050505050565b60008160001904831182151516156109ea576109ea61096a565b500290565b600082610a0c57634e487b7160e01b600052601260045260246000fd5b500490565b60008219821115610a2457610a2461096a565b500190565b600082821015610a3b57610a3b61096a565b500390565b600181811c90821680610a5457607f821691505b602082108103610a7457634e487b7160e01b600052602260045260246000fd5b50919050565b6001600160a01b0385168152602080820185905260408201849052608060608301528254600091908290600181811c9082811680610ab957607f831692505b8583108103610ad657634e487b7160e01b85526022600452602485fd5b6080880183905260a08801818015610af55760018114610b0657610b31565b60ff19861682528782019650610b31565b60008b81526020902060005b86811015610b2b57815484820152908501908901610b12565b83019750505b50949c9b50505050505050505050505056fea2646970667358221220f72b2cee678a61f7e035c6e0a244a94c609a2426b5a3962ac884c9f8087db12764736f6c634300080d0033",
  "immutableReferences": {},
  "source": "pragma solidity ^0.8.0;\r\n// import dependencies\r\n// import \"@openzeppelin/contracts/token/ERC721/IERC721.sol\";\r\nimport \"./Token.sol\";\r\n\r\ncontract MarketPlace{\r\n    // total number of uploaded items\r\n    uint public itemsCount;\r\n    // a mapping of number of items to id of the items\r\n    mapping(uint=>uint) public itemsForSale;\r\n    // a mapping of id of items to the item\r\n    mapping(uint=>Item) public itemId_Item;\r\n    // variables modified by deployer\r\n    address payable public feeBank;\r\n    uint public percentage;\r\n    // description of an nft item on the marketplace\r\n    struct Item{\r\n        NFTToken item;\r\n        uint id;\r\n        string name;\r\n        address payable creator;\r\n        uint price;\r\n        bool sold;\r\n    }\r\n    // event emitted when seller uploads nft to marketplace\r\n    event Uploaded(address market,uint price,uint itemId,string name);\r\n    // event emitted when buyer nuys nft from marketplace\r\n    event Bought(address seller,uint price,uint itemId,string name);\r\n    // deployer gives the fees address and the percentage of fee per item\r\n    constructor(uint feePercent){\r\n        feeBank=payable(msg.sender);\r\n        percentage=feePercent;\r\n    }\r\n    // seller uploads nft to marketplace (accepts as arguments NFT instance,tokenId, and price)\r\n    function uploadNFT(NFTToken nft,uint itemId,uint price,string memory name) public{\r\n        // price of an item cannot be negative\r\n        require(price>=0,\"Enter a valid price\");\r\n        // transfer ownership to the marketplace needs the approve function called\r\n        nft.transferFrom(msg.sender,address(this),itemId);\r\n        // increase the item count\r\n        itemsCount++;\r\n        // map the item count to its id\r\n        itemsForSale[itemsCount]=itemId;\r\n        // map the id to the item\r\n        itemId_Item[itemId]=Item({\r\n            item:nft,\r\n            id:itemId,\r\n            name:name,\r\n            creator:payable(msg.sender),\r\n            price:price,\r\n            sold:false\r\n        });\r\n        // emit the uploaded event\r\n        emit Uploaded(address(this),price,itemId,name);\r\n    }\r\n    // buyer buys nft\r\n    function buyNFT(uint itemNumber)public payable{\r\n        // get the item object using the number\r\n        Item storage item=itemId_Item[itemsForSale[itemNumber]];\r\n        // get the total fee (price of the item + market fee)\r\n        uint totalPrice=calc_totalFee(itemNumber);\r\n        // item must be among those listed on the marketplace\r\n        require(itemNumber>0 && itemNumber<=itemsCount,'Please enter a valid id');\r\n        // item should not have been sold\r\n        require (!(item.sold),'This item is not available for sale');\r\n        // buyer must have enough ether to cover both price and market fee\r\n        require (msg.value>=totalPrice,'You do not have enough ether to purchase this item');\r\n        // transfer price to creator of the nft\r\n        item.creator.transfer(item.price);\r\n        // transfer market fee\r\n        feeBank.transfer(totalPrice-item.price);\r\n        // update the sold attribute\r\n        item.sold=true;\r\n        // finally transfer the nft from the marketplace to the buyer\r\n        item.item.transferFrom(address(this),msg.sender,item.id);\r\n        // event emitted when buyer buys nft\r\n        emit Bought(item.creator,item.price,item.id,item.name);\r\n\r\n    }\r\n    // calculate the total fee for buyer\r\n    function calc_totalFee(uint itemNumber) public view returns(uint){\r\n        uint amount=itemId_Item[itemsForSale[itemNumber]].price;\r\n        uint ans=(amount+(amount*percentage/100));\r\n        return ans;\r\n    }\r\n}\r\n",
  "sourcePath": "C:\\Users\\DADA\\Desktop\\nft-marketplace\\src\\contracts\\MarketPlace.sol",
  "compiler": {
    "name": "solc",
    "version": "0.8.13+commit.abaa5c0e.Emscripten.clang"
  },
  "schemaVersion": "3.4.7",
  "updatedAt": "2022-05-17T10:31:17.002Z",
  "networkType": "ethereum",
  "devdoc": {
    "kind": "dev",
    "methods": {},
    "version": 1
  },
  "userdoc": {
    "kind": "user",
    "methods": {},
    "version": 1
  }
}