{
  "contractName": "NFTToken",
  "abi": [
    {
      "inputs": [],
      "stateMutability": "nonpayable",
      "type": "constructor"
    },
    {
      "anonymous": false,
      "inputs": [
        {
          "indexed": true,
          "internalType": "address",
          "name": "owner",
          "type": "address"
        },
        {
          "indexed": true,
          "internalType": "address",
          "name": "approved",
          "type": "address"
        },
        {
          "indexed": true,
          "internalType": "uint256",
          "name": "tokenId",
          "type": "uint256"
        }
      ],
      "name": "Approval",
      "type": "event"
    },
    {
      "anonymous": false,
      "inputs": [
        {
          "indexed": true,
          "internalType": "address",
          "name": "owner",
          "type": "address"
        },
        {
          "indexed": true,
          "internalType": "address",
          "name": "operator",
          "type": "address"
        },
        {
          "indexed": false,
          "internalType": "bool",
          "name": "approved",
          "type": "bool"
        }
      ],
      "name": "ApprovalForAll",
      "type": "event"
    },
    {
      "anonymous": false,
      "inputs": [
        {
          "indexed": true,
          "internalType": "address",
          "name": "from",
          "type": "address"
        },
        {
          "indexed": true,
          "internalType": "address",
          "name": "to",
          "type": "address"
        },
        {
          "indexed": true,
          "internalType": "uint256",
          "name": "tokenId",
          "type": "uint256"
        }
      ],
      "name": "Transfer",
      "type": "event"
    },
    {
      "inputs": [
        {
          "internalType": "address",
          "name": "to",
          "type": "address"
        },
        {
          "internalType": "uint256",
          "name": "tokenId",
          "type": "uint256"
        }
      ],
      "name": "approve",
      "outputs": [],
      "stateMutability": "nonpayable",
      "type": "function"
    },
    {
      "inputs": [
        {
          "internalType": "address",
          "name": "owner",
          "type": "address"
        }
      ],
      "name": "balanceOf",
      "outputs": [
        {
          "internalType": "uint256",
          "name": "",
          "type": "uint256"
        }
      ],
      "stateMutability": "view",
      "type": "function",
      "constant": true
    },
    {
      "inputs": [
        {
          "internalType": "uint256",
          "name": "tokenId",
          "type": "uint256"
        }
      ],
      "name": "getApproved",
      "outputs": [
        {
          "internalType": "address",
          "name": "",
          "type": "address"
        }
      ],
      "stateMutability": "view",
      "type": "function",
      "constant": true
    },
    {
      "inputs": [
        {
          "internalType": "address",
          "name": "owner",
          "type": "address"
        },
        {
          "internalType": "address",
          "name": "operator",
          "type": "address"
        }
      ],
      "name": "isApprovedForAll",
      "outputs": [
        {
          "internalType": "bool",
          "name": "",
          "type": "bool"
        }
      ],
      "stateMutability": "view",
      "type": "function",
      "constant": true
    },
    {
      "inputs": [],
      "name": "name",
      "outputs": [
        {
          "internalType": "string",
          "name": "",
          "type": "string"
        }
      ],
      "stateMutability": "view",
      "type": "function",
      "constant": true
    },
    {
      "inputs": [
        {
          "internalType": "uint256",
          "name": "tokenId",
          "type": "uint256"
        }
      ],
      "name": "ownerOf",
      "outputs": [
        {
          "internalType": "address",
          "name": "",
          "type": "address"
        }
      ],
      "stateMutability": "view",
      "type": "function",
      "constant": true
    },
    {
      "inputs": [
        {
          "internalType": "address",
          "name": "from",
          "type": "address"
        },
        {
          "internalType": "address",
          "name": "to",
          "type": "address"
        },
        {
          "internalType": "uint256",
          "name": "tokenId",
          "type": "uint256"
        }
      ],
      "name": "safeTransferFrom",
      "outputs": [],
      "stateMutability": "nonpayable",
      "type": "function"
    },
    {
      "inputs": [
        {
          "internalType": "address",
          "name": "from",
          "type": "address"
        },
        {
          "internalType": "address",
          "name": "to",
          "type": "address"
        },
        {
          "internalType": "uint256",
          "name": "tokenId",
          "type": "uint256"
        },
        {
          "internalType": "bytes",
          "name": "_data",
          "type": "bytes"
        }
      ],
      "name": "safeTransferFrom",
      "outputs": [],
      "stateMutability": "nonpayable",
      "type": "function"
    },
    {
      "inputs": [
        {
          "internalType": "address",
          "name": "operator",
          "type": "address"
        },
        {
          "internalType": "bool",
          "name": "approved",
          "type": "bool"
        }
      ],
      "name": "setApprovalForAll",
      "outputs": [],
      "stateMutability": "nonpayable",
      "type": "function"
    },
    {
      "inputs": [
        {
          "internalType": "bytes4",
          "name": "interfaceId",
          "type": "bytes4"
        }
      ],
      "name": "supportsInterface",
      "outputs": [
        {
          "internalType": "bool",
          "name": "",
          "type": "bool"
        }
      ],
      "stateMutability": "view",
      "type": "function",
      "constant": true
    },
    {
      "inputs": [],
      "name": "symbol",
      "outputs": [
        {
          "internalType": "string",
          "name": "",
          "type": "string"
        }
      ],
      "stateMutability": "view",
      "type": "function",
      "constant": true
    },
    {
      "inputs": [
        {
          "internalType": "uint256",
          "name": "tokenId",
          "type": "uint256"
        }
      ],
      "name": "tokenURI",
      "outputs": [
        {
          "internalType": "string",
          "name": "",
          "type": "string"
        }
      ],
      "stateMutability": "view",
      "type": "function",
      "constant": true
    },
    {
      "inputs": [
        {
          "internalType": "address",
          "name": "from",
          "type": "address"
        },
        {
          "internalType": "address",
          "name": "to",
          "type": "address"
        },
        {
          "internalType": "uint256",
          "name": "tokenId",
          "type": "uint256"
        }
      ],
      "name": "transferFrom",
      "outputs": [],
      "stateMutability": "nonpayable",
      "type": "function"
    },
    {
      "inputs": [
        {
          "internalType": "string",
          "name": "tokenURI",
          "type": "string"
        }
      ],
      "name": "mint",
      "outputs": [
        {
          "internalType": "uint256",
          "name": "",
          "type": "uint256"
        }
      ],
      "stateMutability": "nonpayable",
      "type": "function"
    }
  ],
  "bytecode": "0x60806040523480156200001157600080fd5b50604080518082018252600881526727232a2a37b5b2b760c11b60208083019182528351808501909452600384526213919560ea1b9084015281519192916200005d916000916200007c565b508051620000739060019060208401906200007c565b5050506200015e565b8280546200008a9062000122565b90600052602060002090601f016020900481019282620000ae5760008555620000f9565b82601f10620000c957805160ff1916838001178555620000f9565b82800160010185558215620000f9579182015b82811115620000f9578251825591602001919060010190620000dc565b50620001079291506200010b565b5090565b5b808211156200010757600081556001016200010c565b600181811c908216806200013757607f821691505b6020821081036200015857634e487b7160e01b600052602260045260246000fd5b50919050565b611719806200016e6000396000f3fe608060405234801561001057600080fd5b50600436106100ea5760003560e01c806370a082311161008c578063b88d4fde11610066578063b88d4fde146101e1578063c87b56dd146101f4578063d85d3d2714610207578063e985e9c51461021a57600080fd5b806370a08231146101a557806395d89b41146101c6578063a22cb465146101ce57600080fd5b8063095ea7b3116100c8578063095ea7b31461015757806323b872dd1461016c57806342842e0e1461017f5780636352211e1461019257600080fd5b806301ffc9a7146100ef57806306fdde0314610117578063081812fc1461012c575b600080fd5b6101026100fd3660046111cd565b610256565b60405190151581526020015b60405180910390f35b61011f6102a8565b60405161010e9190611242565b61013f61013a366004611255565b61033a565b6040516001600160a01b03909116815260200161010e565b61016a61016536600461128a565b6103c7565b005b61016a61017a3660046112b4565b6104dc565b61016a61018d3660046112b4565b61050d565b61013f6101a0366004611255565b610528565b6101b86101b33660046112f0565b61059f565b60405190815260200161010e565b61011f610626565b61016a6101dc36600461130b565b610635565b61016a6101ef3660046113d3565b610644565b61011f610202366004611255565b61067c565b6101b861021536600461144f565b6107f2565b610102610228366004611498565b6001600160a01b03918216600090815260056020908152604080832093909416825291909152205460ff1690565b60006001600160e01b031982166380ac58cd60e01b148061028757506001600160e01b03198216635b5e139f60e01b145b806102a257506301ffc9a760e01b6001600160e01b03198316145b92915050565b6060600080546102b7906114cb565b80601f01602080910402602001604051908101604052809291908181526020018280546102e3906114cb565b80156103305780601f1061030557610100808354040283529160200191610330565b820191906000526020600020905b81548152906001019060200180831161031357829003601f168201915b5050505050905090565b600061034582610828565b6103ab5760405162461bcd60e51b815260206004820152602c60248201527f4552433732313a20617070726f76656420717565727920666f72206e6f6e657860448201526b34b9ba32b73a103a37b5b2b760a11b60648201526084015b60405180910390fd5b506000908152600460205260409020546001600160a01b031690565b60006103d282610528565b9050806001600160a01b0316836001600160a01b03160361043f5760405162461bcd60e51b815260206004820152602160248201527f4552433732313a20617070726f76616c20746f2063757272656e74206f776e656044820152603960f91b60648201526084016103a2565b336001600160a01b038216148061045b575061045b8133610228565b6104cd5760405162461bcd60e51b815260206004820152603860248201527f4552433732313a20617070726f76652063616c6c6572206973206e6f74206f7760448201527f6e6572206e6f7220617070726f76656420666f7220616c6c000000000000000060648201526084016103a2565b6104d78383610845565b505050565b6104e633826108b3565b6105025760405162461bcd60e51b81526004016103a290611505565b6104d7838383610999565b6104d783838360405180602001604052806000815250610644565b6000818152600260205260408120546001600160a01b0316806102a25760405162461bcd60e51b815260206004820152602960248201527f4552433732313a206f776e657220717565727920666f72206e6f6e657869737460448201526832b73a103a37b5b2b760b91b60648201526084016103a2565b60006001600160a01b03821661060a5760405162461bcd60e51b815260206004820152602a60248201527f4552433732313a2062616c616e636520717565727920666f7220746865207a65604482015269726f206164647265737360b01b60648201526084016103a2565b506001600160a01b031660009081526003602052604090205490565b6060600180546102b7906114cb565b610640338383610b35565b5050565b61064e33836108b3565b61066a5760405162461bcd60e51b81526004016103a290611505565b61067684848484610c03565b50505050565b606061068782610828565b6106ed5760405162461bcd60e51b815260206004820152603160248201527f45524337323155524953746f726167653a2055524920717565727920666f72206044820152703737b732bc34b9ba32b73a103a37b5b2b760791b60648201526084016103a2565b60008281526006602052604081208054610706906114cb565b80601f0160208091040260200160405190810160405280929190818152602001828054610732906114cb565b801561077f5780601f106107545761010080835404028352916020019161077f565b820191906000526020600020905b81548152906001019060200180831161076257829003601f168201915b50505050509050600061079d60408051602081019091526000815290565b905080516000036107af575092915050565b8151156107e15780826040516020016107c9929190611556565b60405160208183030381529060405292505050919050565b6107ea84610c36565b949350505050565b60078054600091826108038361159b565b919050555061081433600754610d0e565b61082060075483610d28565b505060075490565b6000908152600260205260409020546001600160a01b0316151590565b600081815260046020526040902080546001600160a01b0319166001600160a01b038416908117909155819061087a82610528565b6001600160a01b03167f8c5be1e5ebec7d5bd14f71427d1e84f3dd0314c0f7b2291e5b200ac8c7c3b92560405160405180910390a45050565b60006108be82610828565b61091f5760405162461bcd60e51b815260206004820152602c60248201527f4552433732313a206f70657261746f7220717565727920666f72206e6f6e657860448201526b34b9ba32b73a103a37b5b2b760a11b60648201526084016103a2565b600061092a83610528565b9050806001600160a01b0316846001600160a01b031614806109655750836001600160a01b031661095a8461033a565b6001600160a01b0316145b806107ea57506001600160a01b0380821660009081526005602090815260408083209388168352929052205460ff166107ea565b826001600160a01b03166109ac82610528565b6001600160a01b031614610a105760405162461bcd60e51b815260206004820152602560248201527f4552433732313a207472616e736665722066726f6d20696e636f72726563742060448201526437bbb732b960d91b60648201526084016103a2565b6001600160a01b038216610a725760405162461bcd60e51b8152602060048201526024808201527f4552433732313a207472616e7366657220746f20746865207a65726f206164646044820152637265737360e01b60648201526084016103a2565b610a7d600082610845565b6001600160a01b0383166000908152600360205260408120805460019290610aa69084906115b4565b90915550506001600160a01b0382166000908152600360205260408120805460019290610ad49084906115cb565b909155505060008181526002602052604080822080546001600160a01b0319166001600160a01b0386811691821790925591518493918716917fddf252ad1be2c89b69c2b068fc378daa952ba7f163c4a11628f55a4df523b3ef91a4505050565b816001600160a01b0316836001600160a01b031603610b965760405162461bcd60e51b815260206004820152601960248201527f4552433732313a20617070726f766520746f2063616c6c65720000000000000060448201526064016103a2565b6001600160a01b03838116600081815260056020908152604080832094871680845294825291829020805460ff191686151590811790915591519182527f17307eab39ab6107e8899845ad3d59bd9653f200f220920489ca2b5937696c31910160405180910390a3505050565b610c0e848484610999565b610c1a84848484610db3565b6106765760405162461bcd60e51b81526004016103a2906115e3565b6060610c4182610828565b610ca55760405162461bcd60e51b815260206004820152602f60248201527f4552433732314d657461646174613a2055524920717565727920666f72206e6f60448201526e3732bc34b9ba32b73a103a37b5b2b760891b60648201526084016103a2565b6000610cbc60408051602081019091526000815290565b90506000815111610cdc5760405180602001604052806000815250610d07565b80610ce684610eb4565b604051602001610cf7929190611556565b6040516020818303038152906040525b9392505050565b610640828260405180602001604052806000815250610fb5565b610d3182610828565b610d945760405162461bcd60e51b815260206004820152602e60248201527f45524337323155524953746f726167653a2055524920736574206f66206e6f6e60448201526d32bc34b9ba32b73a103a37b5b2b760911b60648201526084016103a2565b600082815260066020908152604090912082516104d79284019061111b565b60006001600160a01b0384163b15610ea957604051630a85bd0160e11b81526001600160a01b0385169063150b7a0290610df7903390899088908890600401611635565b6020604051808303816000875af1925050508015610e32575060408051601f3d908101601f19168201909252610e2f91810190611672565b60015b610e8f573d808015610e60576040519150601f19603f3d011682016040523d82523d6000602084013e610e65565b606091505b508051600003610e875760405162461bcd60e51b81526004016103a2906115e3565b805181602001fd5b6001600160e01b031916630a85bd0160e11b1490506107ea565b506001949350505050565b606081600003610edb5750506040805180820190915260018152600360fc1b602082015290565b8160005b8115610f055780610eef8161159b565b9150610efe9050600a836116a5565b9150610edf565b60008167ffffffffffffffff811115610f2057610f20611347565b6040519080825280601f01601f191660200182016040528015610f4a576020820181803683370190505b5090505b84156107ea57610f5f6001836115b4565b9150610f6c600a866116b9565b610f779060306115cb565b60f81b818381518110610f8c57610f8c6116cd565b60200101906001600160f81b031916908160001a905350610fae600a866116a5565b9450610f4e565b610fbf8383610fe8565b610fcc6000848484610db3565b6104d75760405162461bcd60e51b81526004016103a2906115e3565b6001600160a01b03821661103e5760405162461bcd60e51b815260206004820181905260248201527f4552433732313a206d696e7420746f20746865207a65726f206164647265737360448201526064016103a2565b61104781610828565b156110945760405162461bcd60e51b815260206004820152601c60248201527f4552433732313a20746f6b656e20616c7265616479206d696e7465640000000060448201526064016103a2565b6001600160a01b03821660009081526003602052604081208054600192906110bd9084906115cb565b909155505060008181526002602052604080822080546001600160a01b0319166001600160a01b03861690811790915590518392907fddf252ad1be2c89b69c2b068fc378daa952ba7f163c4a11628f55a4df523b3ef908290a45050565b828054611127906114cb565b90600052602060002090601f016020900481019282611149576000855561118f565b82601f1061116257805160ff191683800117855561118f565b8280016001018555821561118f579182015b8281111561118f578251825591602001919060010190611174565b5061119b92915061119f565b5090565b5b8082111561119b57600081556001016111a0565b6001600160e01b0319811681146111ca57600080fd5b50565b6000602082840312156111df57600080fd5b8135610d07816111b4565b60005b838110156112055781810151838201526020016111ed565b838111156106765750506000910152565b6000815180845261122e8160208601602086016111ea565b601f01601f19169290920160200192915050565b602081526000610d076020830184611216565b60006020828403121561126757600080fd5b5035919050565b80356001600160a01b038116811461128557600080fd5b919050565b6000806040838503121561129d57600080fd5b6112a68361126e565b946020939093013593505050565b6000806000606084860312156112c957600080fd5b6112d28461126e565b92506112e06020850161126e565b9150604084013590509250925092565b60006020828403121561130257600080fd5b610d078261126e565b6000806040838503121561131e57600080fd5b6113278361126e565b91506020830135801515811461133c57600080fd5b809150509250929050565b634e487b7160e01b600052604160045260246000fd5b600067ffffffffffffffff8084111561137857611378611347565b604051601f8501601f19908116603f011681019082821181831017156113a0576113a0611347565b816040528093508581528686860111156113b957600080fd5b858560208301376000602087830101525050509392505050565b600080600080608085870312156113e957600080fd5b6113f28561126e565b93506114006020860161126e565b925060408501359150606085013567ffffffffffffffff81111561142357600080fd5b8501601f8101871361143457600080fd5b6114438782356020840161135d565b91505092959194509250565b60006020828403121561146157600080fd5b813567ffffffffffffffff81111561147857600080fd5b8201601f8101841361148957600080fd5b6107ea8482356020840161135d565b600080604083850312156114ab57600080fd5b6114b48361126e565b91506114c26020840161126e565b90509250929050565b600181811c908216806114df57607f821691505b6020821081036114ff57634e487b7160e01b600052602260045260246000fd5b50919050565b60208082526031908201527f4552433732313a207472616e736665722063616c6c6572206973206e6f74206f6040820152701ddb995c881b9bdc88185c1c1c9bdd9959607a1b606082015260800190565b600083516115688184602088016111ea565b83519083019061157c8183602088016111ea565b01949350505050565b634e487b7160e01b600052601160045260246000fd5b6000600182016115ad576115ad611585565b5060010190565b6000828210156115c6576115c6611585565b500390565b600082198211156115de576115de611585565b500190565b60208082526032908201527f4552433732313a207472616e7366657220746f206e6f6e20455243373231526560408201527131b2b4bb32b91034b6b83632b6b2b73a32b960711b606082015260800190565b6001600160a01b038581168252841660208201526040810183905260806060820181905260009061166890830184611216565b9695505050505050565b60006020828403121561168457600080fd5b8151610d07816111b4565b634e487b7160e01b600052601260045260246000fd5b6000826116b4576116b461168f565b500490565b6000826116c8576116c861168f565b500690565b634e487b7160e01b600052603260045260246000fdfea264697066735822122053182e1a61f9eb18fd13506d8281e26af4eec6465db94af91983784835e6753664736f6c634300080d0033",
  "immutableReferences": {},
  "source": "pragma solidity ^0.8.0;\r\n\r\nimport \"@openzeppelin/contracts/token/ERC721/extensions/ERC721URIStorage.sol\";\r\ncontract NFTToken is ERC721URIStorage{\r\n    uint tokenId;\r\n\r\n    constructor() ERC721('NFTToken','NFT'){}\r\n    \r\n    function mint(string memory tokenURI) public returns(uint){\r\n        tokenId++ ;\r\n        _safeMint(msg.sender, tokenId);\r\n        _setTokenURI(tokenId, tokenURI);\r\n        return(tokenId);\r\n    }\r\n}",
  "sourcePath": "C:\\Users\\DADA\\Desktop\\nft-marketplace\\src\\contracts\\Token.sol",
  "compiler": {
    "name": "solc",
    "version": "0.8.13+commit.abaa5c0e.Emscripten.clang"
  },
  "schemaVersion": "3.4.5",
  "updatedAt": "2022-04-27T12:16:14.235Z",
  "networkType": "ethereum",
  "devdoc": {
    "kind": "dev",
    "methods": {
      "approve(address,uint256)": {
        "details": "See {IERC721-approve}."
      },
      "balanceOf(address)": {
        "details": "See {IERC721-balanceOf}."
      },
      "getApproved(uint256)": {
        "details": "See {IERC721-getApproved}."
      },
      "isApprovedForAll(address,address)": {
        "details": "See {IERC721-isApprovedForAll}."
      },
      "name()": {
        "details": "See {IERC721Metadata-name}."
      },
      "ownerOf(uint256)": {
        "details": "See {IERC721-ownerOf}."
      },
      "safeTransferFrom(address,address,uint256)": {
        "details": "See {IERC721-safeTransferFrom}."
      },
      "safeTransferFrom(address,address,uint256,bytes)": {
        "details": "See {IERC721-safeTransferFrom}."
      },
      "setApprovalForAll(address,bool)": {
        "details": "See {IERC721-setApprovalForAll}."
      },
      "supportsInterface(bytes4)": {
        "details": "See {IERC165-supportsInterface}."
      },
      "symbol()": {
        "details": "See {IERC721Metadata-symbol}."
      },
      "tokenURI(uint256)": {
        "details": "See {IERC721Metadata-tokenURI}."
      },
      "transferFrom(address,address,uint256)": {
        "details": "See {IERC721-transferFrom}."
      }
    },
    "version": 1
  },
  "userdoc": {
    "kind": "user",
    "methods": {},
    "version": 1
  }
}