{
  "contractName": "NFTToken",
  "abi": [
    {
      "inputs": [],
      "stateMutability": "nonpayable",
      "type": "constructor"
    },
    {
      "anonymous": false,
      "inputs": [
        {
          "indexed": true,
          "internalType": "address",
          "name": "owner",
          "type": "address"
        },
        {
          "indexed": true,
          "internalType": "address",
          "name": "approved",
          "type": "address"
        },
        {
          "indexed": true,
          "internalType": "uint256",
          "name": "tokenId",
          "type": "uint256"
        }
      ],
      "name": "Approval",
      "type": "event"
    },
    {
      "anonymous": false,
      "inputs": [
        {
          "indexed": true,
          "internalType": "address",
          "name": "owner",
          "type": "address"
        },
        {
          "indexed": true,
          "internalType": "address",
          "name": "operator",
          "type": "address"
        },
        {
          "indexed": false,
          "internalType": "bool",
          "name": "approved",
          "type": "bool"
        }
      ],
      "name": "ApprovalForAll",
      "type": "event"
    },
    {
      "anonymous": false,
      "inputs": [
        {
          "indexed": true,
          "internalType": "address",
          "name": "from",
          "type": "address"
        },
        {
          "indexed": true,
          "internalType": "address",
          "name": "to",
          "type": "address"
        },
        {
          "indexed": true,
          "internalType": "uint256",
          "name": "tokenId",
          "type": "uint256"
        }
      ],
      "name": "Transfer",
      "type": "event"
    },
    {
      "inputs": [
        {
          "internalType": "address",
          "name": "to",
          "type": "address"
        },
        {
          "internalType": "uint256",
          "name": "tokenId",
          "type": "uint256"
        }
      ],
      "name": "approve",
      "outputs": [],
      "stateMutability": "nonpayable",
      "type": "function"
    },
    {
      "inputs": [
        {
          "internalType": "address",
          "name": "owner",
          "type": "address"
        }
      ],
      "name": "balanceOf",
      "outputs": [
        {
          "internalType": "uint256",
          "name": "",
          "type": "uint256"
        }
      ],
      "stateMutability": "view",
      "type": "function",
      "constant": true
    },
    {
      "inputs": [
        {
          "internalType": "uint256",
          "name": "tokenId",
          "type": "uint256"
        }
      ],
      "name": "getApproved",
      "outputs": [
        {
          "internalType": "address",
          "name": "",
          "type": "address"
        }
      ],
      "stateMutability": "view",
      "type": "function",
      "constant": true
    },
    {
      "inputs": [
        {
          "internalType": "address",
          "name": "owner",
          "type": "address"
        },
        {
          "internalType": "address",
          "name": "operator",
          "type": "address"
        }
      ],
      "name": "isApprovedForAll",
      "outputs": [
        {
          "internalType": "bool",
          "name": "",
          "type": "bool"
        }
      ],
      "stateMutability": "view",
      "type": "function",
      "constant": true
    },
    {
      "inputs": [],
      "name": "name",
      "outputs": [
        {
          "internalType": "string",
          "name": "",
          "type": "string"
        }
      ],
      "stateMutability": "view",
      "type": "function",
      "constant": true
    },
    {
      "inputs": [
        {
          "internalType": "uint256",
          "name": "tokenId",
          "type": "uint256"
        }
      ],
      "name": "ownerOf",
      "outputs": [
        {
          "internalType": "address",
          "name": "",
          "type": "address"
        }
      ],
      "stateMutability": "view",
      "type": "function",
      "constant": true
    },
    {
      "inputs": [
        {
          "internalType": "address",
          "name": "from",
          "type": "address"
        },
        {
          "internalType": "address",
          "name": "to",
          "type": "address"
        },
        {
          "internalType": "uint256",
          "name": "tokenId",
          "type": "uint256"
        }
      ],
      "name": "safeTransferFrom",
      "outputs": [],
      "stateMutability": "nonpayable",
      "type": "function"
    },
    {
      "inputs": [
        {
          "internalType": "address",
          "name": "from",
          "type": "address"
        },
        {
          "internalType": "address",
          "name": "to",
          "type": "address"
        },
        {
          "internalType": "uint256",
          "name": "tokenId",
          "type": "uint256"
        },
        {
          "internalType": "bytes",
          "name": "_data",
          "type": "bytes"
        }
      ],
      "name": "safeTransferFrom",
      "outputs": [],
      "stateMutability": "nonpayable",
      "type": "function"
    },
    {
      "inputs": [
        {
          "internalType": "address",
          "name": "operator",
          "type": "address"
        },
        {
          "internalType": "bool",
          "name": "approved",
          "type": "bool"
        }
      ],
      "name": "setApprovalForAll",
      "outputs": [],
      "stateMutability": "nonpayable",
      "type": "function"
    },
    {
      "inputs": [
        {
          "internalType": "bytes4",
          "name": "interfaceId",
          "type": "bytes4"
        }
      ],
      "name": "supportsInterface",
      "outputs": [
        {
          "internalType": "bool",
          "name": "",
          "type": "bool"
        }
      ],
      "stateMutability": "view",
      "type": "function",
      "constant": true
    },
    {
      "inputs": [],
      "name": "symbol",
      "outputs": [
        {
          "internalType": "string",
          "name": "",
          "type": "string"
        }
      ],
      "stateMutability": "view",
      "type": "function",
      "constant": true
    },
    {
      "inputs": [],
      "name": "tokenId",
      "outputs": [
        {
          "internalType": "uint256",
          "name": "",
          "type": "uint256"
        }
      ],
      "stateMutability": "view",
      "type": "function",
      "constant": true
    },
    {
      "inputs": [
        {
          "internalType": "uint256",
          "name": "tokenId",
          "type": "uint256"
        }
      ],
      "name": "tokenURI",
      "outputs": [
        {
          "internalType": "string",
          "name": "",
          "type": "string"
        }
      ],
      "stateMutability": "view",
      "type": "function",
      "constant": true
    },
    {
      "inputs": [
        {
          "internalType": "address",
          "name": "from",
          "type": "address"
        },
        {
          "internalType": "address",
          "name": "to",
          "type": "address"
        },
        {
          "internalType": "uint256",
          "name": "tokenId",
          "type": "uint256"
        }
      ],
      "name": "transferFrom",
      "outputs": [],
      "stateMutability": "nonpayable",
      "type": "function"
    },
    {
      "inputs": [
        {
          "internalType": "string",
          "name": "tokenURI",
          "type": "string"
        }
      ],
      "name": "mint",
      "outputs": [
        {
          "internalType": "uint256",
          "name": "",
          "type": "uint256"
        }
      ],
      "stateMutability": "nonpayable",
      "type": "function"
    }
  ],
  "bytecode": "0x60806040523480156200001157600080fd5b50604080518082018252600881526727232a2a37b5b2b760c11b60208083019182528351808501909452600384526213919560ea1b9084015281519192916200005d916000916200007c565b508051620000739060019060208401906200007c565b5050506200015e565b8280546200008a9062000122565b90600052602060002090601f016020900481019282620000ae5760008555620000f9565b82601f10620000c957805160ff1916838001178555620000f9565b82800160010185558215620000f9579182015b82811115620000f9578251825591602001919060010190620000dc565b50620001079291506200010b565b5090565b5b808211156200010757600081556001016200010c565b600181811c908216806200013757607f821691505b6020821081036200015857634e487b7160e01b600052602260045260246000fd5b50919050565b61172d806200016e6000396000f3fe608060405234801561001057600080fd5b50600436106100f55760003560e01c80636352211e11610097578063b88d4fde11610066578063b88d4fde146101f5578063c87b56dd14610208578063d85d3d271461021b578063e985e9c51461022e57600080fd5b80636352211e146101b457806370a08231146101c757806395d89b41146101da578063a22cb465146101e257600080fd5b8063095ea7b3116100d3578063095ea7b31461016257806317d70f7c1461017757806323b872dd1461018e57806342842e0e146101a157600080fd5b806301ffc9a7146100fa57806306fdde0314610122578063081812fc14610137575b600080fd5b61010d6101083660046111e1565b61026a565b60405190151581526020015b60405180910390f35b61012a6102bc565b6040516101199190611256565b61014a610145366004611269565b61034e565b6040516001600160a01b039091168152602001610119565b61017561017036600461129e565b6103db565b005b61018060075481565b604051908152602001610119565b61017561019c3660046112c8565b6104f0565b6101756101af3660046112c8565b610521565b61014a6101c2366004611269565b61053c565b6101806101d5366004611304565b6105b3565b61012a61063a565b6101756101f036600461131f565b610649565b6101756102033660046113e7565b610658565b61012a610216366004611269565b610690565b610180610229366004611463565b610806565b61010d61023c3660046114ac565b6001600160a01b03918216600090815260056020908152604080832093909416825291909152205460ff1690565b60006001600160e01b031982166380ac58cd60e01b148061029b57506001600160e01b03198216635b5e139f60e01b145b806102b657506301ffc9a760e01b6001600160e01b03198316145b92915050565b6060600080546102cb906114df565b80601f01602080910402602001604051908101604052809291908181526020018280546102f7906114df565b80156103445780601f1061031957610100808354040283529160200191610344565b820191906000526020600020905b81548152906001019060200180831161032757829003601f168201915b5050505050905090565b60006103598261083c565b6103bf5760405162461bcd60e51b815260206004820152602c60248201527f4552433732313a20617070726f76656420717565727920666f72206e6f6e657860448201526b34b9ba32b73a103a37b5b2b760a11b60648201526084015b60405180910390fd5b506000908152600460205260409020546001600160a01b031690565b60006103e68261053c565b9050806001600160a01b0316836001600160a01b0316036104535760405162461bcd60e51b815260206004820152602160248201527f4552433732313a20617070726f76616c20746f2063757272656e74206f776e656044820152603960f91b60648201526084016103b6565b336001600160a01b038216148061046f575061046f813361023c565b6104e15760405162461bcd60e51b815260206004820152603860248201527f4552433732313a20617070726f76652063616c6c6572206973206e6f74206f7760448201527f6e6572206e6f7220617070726f76656420666f7220616c6c000000000000000060648201526084016103b6565b6104eb8383610859565b505050565b6104fa33826108c7565b6105165760405162461bcd60e51b81526004016103b690611519565b6104eb8383836109ad565b6104eb83838360405180602001604052806000815250610658565b6000818152600260205260408120546001600160a01b0316806102b65760405162461bcd60e51b815260206004820152602960248201527f4552433732313a206f776e657220717565727920666f72206e6f6e657869737460448201526832b73a103a37b5b2b760b91b60648201526084016103b6565b60006001600160a01b03821661061e5760405162461bcd60e51b815260206004820152602a60248201527f4552433732313a2062616c616e636520717565727920666f7220746865207a65604482015269726f206164647265737360b01b60648201526084016103b6565b506001600160a01b031660009081526003602052604090205490565b6060600180546102cb906114df565b610654338383610b49565b5050565b61066233836108c7565b61067e5760405162461bcd60e51b81526004016103b690611519565b61068a84848484610c17565b50505050565b606061069b8261083c565b6107015760405162461bcd60e51b815260206004820152603160248201527f45524337323155524953746f726167653a2055524920717565727920666f72206044820152703737b732bc34b9ba32b73a103a37b5b2b760791b60648201526084016103b6565b6000828152600660205260408120805461071a906114df565b80601f0160208091040260200160405190810160405280929190818152602001828054610746906114df565b80156107935780601f1061076857610100808354040283529160200191610793565b820191906000526020600020905b81548152906001019060200180831161077657829003601f168201915b5050505050905060006107b160408051602081019091526000815290565b905080516000036107c3575092915050565b8151156107f55780826040516020016107dd92919061156a565b60405160208183030381529060405292505050919050565b6107fe84610c4a565b949350505050565b6007805460009182610817836115af565b919050555061082833600754610d22565b61083460075483610d3c565b505060075490565b6000908152600260205260409020546001600160a01b0316151590565b600081815260046020526040902080546001600160a01b0319166001600160a01b038416908117909155819061088e8261053c565b6001600160a01b03167f8c5be1e5ebec7d5bd14f71427d1e84f3dd0314c0f7b2291e5b200ac8c7c3b92560405160405180910390a45050565b60006108d28261083c565b6109335760405162461bcd60e51b815260206004820152602c60248201527f4552433732313a206f70657261746f7220717565727920666f72206e6f6e657860448201526b34b9ba32b73a103a37b5b2b760a11b60648201526084016103b6565b600061093e8361053c565b9050806001600160a01b0316846001600160a01b031614806109795750836001600160a01b031661096e8461034e565b6001600160a01b0316145b806107fe57506001600160a01b0380821660009081526005602090815260408083209388168352929052205460ff166107fe565b826001600160a01b03166109c08261053c565b6001600160a01b031614610a245760405162461bcd60e51b815260206004820152602560248201527f4552433732313a207472616e736665722066726f6d20696e636f72726563742060448201526437bbb732b960d91b60648201526084016103b6565b6001600160a01b038216610a865760405162461bcd60e51b8152602060048201526024808201527f4552433732313a207472616e7366657220746f20746865207a65726f206164646044820152637265737360e01b60648201526084016103b6565b610a91600082610859565b6001600160a01b0383166000908152600360205260408120805460019290610aba9084906115c8565b90915550506001600160a01b0382166000908152600360205260408120805460019290610ae89084906115df565b909155505060008181526002602052604080822080546001600160a01b0319166001600160a01b0386811691821790925591518493918716917fddf252ad1be2c89b69c2b068fc378daa952ba7f163c4a11628f55a4df523b3ef91a4505050565b816001600160a01b0316836001600160a01b031603610baa5760405162461bcd60e51b815260206004820152601960248201527f4552433732313a20617070726f766520746f2063616c6c65720000000000000060448201526064016103b6565b6001600160a01b03838116600081815260056020908152604080832094871680845294825291829020805460ff191686151590811790915591519182527f17307eab39ab6107e8899845ad3d59bd9653f200f220920489ca2b5937696c31910160405180910390a3505050565b610c228484846109ad565b610c2e84848484610dc7565b61068a5760405162461bcd60e51b81526004016103b6906115f7565b6060610c558261083c565b610cb95760405162461bcd60e51b815260206004820152602f60248201527f4552433732314d657461646174613a2055524920717565727920666f72206e6f60448201526e3732bc34b9ba32b73a103a37b5b2b760891b60648201526084016103b6565b6000610cd060408051602081019091526000815290565b90506000815111610cf05760405180602001604052806000815250610d1b565b80610cfa84610ec8565b604051602001610d0b92919061156a565b6040516020818303038152906040525b9392505050565b610654828260405180602001604052806000815250610fc9565b610d458261083c565b610da85760405162461bcd60e51b815260206004820152602e60248201527f45524337323155524953746f726167653a2055524920736574206f66206e6f6e60448201526d32bc34b9ba32b73a103a37b5b2b760911b60648201526084016103b6565b600082815260066020908152604090912082516104eb9284019061112f565b60006001600160a01b0384163b15610ebd57604051630a85bd0160e11b81526001600160a01b0385169063150b7a0290610e0b903390899088908890600401611649565b6020604051808303816000875af1925050508015610e46575060408051601f3d908101601f19168201909252610e4391810190611686565b60015b610ea3573d808015610e74576040519150601f19603f3d011682016040523d82523d6000602084013e610e79565b606091505b508051600003610e9b5760405162461bcd60e51b81526004016103b6906115f7565b805181602001fd5b6001600160e01b031916630a85bd0160e11b1490506107fe565b506001949350505050565b606081600003610eef5750506040805180820190915260018152600360fc1b602082015290565b8160005b8115610f195780610f03816115af565b9150610f129050600a836116b9565b9150610ef3565b60008167ffffffffffffffff811115610f3457610f3461135b565b6040519080825280601f01601f191660200182016040528015610f5e576020820181803683370190505b5090505b84156107fe57610f736001836115c8565b9150610f80600a866116cd565b610f8b9060306115df565b60f81b818381518110610fa057610fa06116e1565b60200101906001600160f81b031916908160001a905350610fc2600a866116b9565b9450610f62565b610fd38383610ffc565b610fe06000848484610dc7565b6104eb5760405162461bcd60e51b81526004016103b6906115f7565b6001600160a01b0382166110525760405162461bcd60e51b815260206004820181905260248201527f4552433732313a206d696e7420746f20746865207a65726f206164647265737360448201526064016103b6565b61105b8161083c565b156110a85760405162461bcd60e51b815260206004820152601c60248201527f4552433732313a20746f6b656e20616c7265616479206d696e7465640000000060448201526064016103b6565b6001600160a01b03821660009081526003602052604081208054600192906110d19084906115df565b909155505060008181526002602052604080822080546001600160a01b0319166001600160a01b03861690811790915590518392907fddf252ad1be2c89b69c2b068fc378daa952ba7f163c4a11628f55a4df523b3ef908290a45050565b82805461113b906114df565b90600052602060002090601f01602090048101928261115d57600085556111a3565b82601f1061117657805160ff19168380011785556111a3565b828001600101855582156111a3579182015b828111156111a3578251825591602001919060010190611188565b506111af9291506111b3565b5090565b5b808211156111af57600081556001016111b4565b6001600160e01b0319811681146111de57600080fd5b50565b6000602082840312156111f357600080fd5b8135610d1b816111c8565b60005b83811015611219578181015183820152602001611201565b8381111561068a5750506000910152565b600081518084526112428160208601602086016111fe565b601f01601f19169290920160200192915050565b602081526000610d1b602083018461122a565b60006020828403121561127b57600080fd5b5035919050565b80356001600160a01b038116811461129957600080fd5b919050565b600080604083850312156112b157600080fd5b6112ba83611282565b946020939093013593505050565b6000806000606084860312156112dd57600080fd5b6112e684611282565b92506112f460208501611282565b9150604084013590509250925092565b60006020828403121561131657600080fd5b610d1b82611282565b6000806040838503121561133257600080fd5b61133b83611282565b91506020830135801515811461135057600080fd5b809150509250929050565b634e487b7160e01b600052604160045260246000fd5b600067ffffffffffffffff8084111561138c5761138c61135b565b604051601f8501601f19908116603f011681019082821181831017156113b4576113b461135b565b816040528093508581528686860111156113cd57600080fd5b858560208301376000602087830101525050509392505050565b600080600080608085870312156113fd57600080fd5b61140685611282565b935061141460208601611282565b925060408501359150606085013567ffffffffffffffff81111561143757600080fd5b8501601f8101871361144857600080fd5b61145787823560208401611371565b91505092959194509250565b60006020828403121561147557600080fd5b813567ffffffffffffffff81111561148c57600080fd5b8201601f8101841361149d57600080fd5b6107fe84823560208401611371565b600080604083850312156114bf57600080fd5b6114c883611282565b91506114d660208401611282565b90509250929050565b600181811c908216806114f357607f821691505b60208210810361151357634e487b7160e01b600052602260045260246000fd5b50919050565b60208082526031908201527f4552433732313a207472616e736665722063616c6c6572206973206e6f74206f6040820152701ddb995c881b9bdc88185c1c1c9bdd9959607a1b606082015260800190565b6000835161157c8184602088016111fe565b8351908301906115908183602088016111fe565b01949350505050565b634e487b7160e01b600052601160045260246000fd5b6000600182016115c1576115c1611599565b5060010190565b6000828210156115da576115da611599565b500390565b600082198211156115f2576115f2611599565b500190565b60208082526032908201527f4552433732313a207472616e7366657220746f206e6f6e20455243373231526560408201527131b2b4bb32b91034b6b83632b6b2b73a32b960711b606082015260800190565b6001600160a01b038581168252841660208201526040810183905260806060820181905260009061167c9083018461122a565b9695505050505050565b60006020828403121561169857600080fd5b8151610d1b816111c8565b634e487b7160e01b600052601260045260246000fd5b6000826116c8576116c86116a3565b500490565b6000826116dc576116dc6116a3565b500690565b634e487b7160e01b600052603260045260246000fdfea2646970667358221220546ec720b85174ca71b7161a285d4c9c27dbb16a65fedd968ca3ab6a5392994764736f6c634300080d0033",
  "immutableReferences": {},
  "source": "pragma solidity ^0.8.0;\r\n\r\nimport \"@openzeppelin/contracts/token/ERC721/extensions/ERC721URIStorage.sol\";\r\ncontract NFTToken is ERC721URIStorage{\r\n    uint public tokenId;\r\n\r\n    constructor() ERC721('NFTToken','NFT'){}\r\n    \r\n    function mint(string memory tokenURI) public returns(uint){\r\n        tokenId++ ;\r\n        _safeMint(msg.sender, tokenId);\r\n        _setTokenURI(tokenId, tokenURI);\r\n        return(tokenId);\r\n    }\r\n}",
  "sourcePath": "C:\\Users\\DADA\\Desktop\\nft-marketplace\\src\\contracts\\Token.sol",
  "compiler": {
    "name": "solc",
    "version": "0.8.13+commit.abaa5c0e.Emscripten.clang"
  },
  "schemaVersion": "3.4.5",
  "updatedAt": "2022-04-28T20:56:27.457Z",
  "networkType": "ethereum",
  "devdoc": {
    "kind": "dev",
    "methods": {
      "approve(address,uint256)": {
        "details": "See {IERC721-approve}."
      },
      "balanceOf(address)": {
        "details": "See {IERC721-balanceOf}."
      },
      "getApproved(uint256)": {
        "details": "See {IERC721-getApproved}."
      },
      "isApprovedForAll(address,address)": {
        "details": "See {IERC721-isApprovedForAll}."
      },
      "name()": {
        "details": "See {IERC721Metadata-name}."
      },
      "ownerOf(uint256)": {
        "details": "See {IERC721-ownerOf}."
      },
      "safeTransferFrom(address,address,uint256)": {
        "details": "See {IERC721-safeTransferFrom}."
      },
      "safeTransferFrom(address,address,uint256,bytes)": {
        "details": "See {IERC721-safeTransferFrom}."
      },
      "setApprovalForAll(address,bool)": {
        "details": "See {IERC721-setApprovalForAll}."
      },
      "supportsInterface(bytes4)": {
        "details": "See {IERC165-supportsInterface}."
      },
      "symbol()": {
        "details": "See {IERC721Metadata-symbol}."
      },
      "tokenURI(uint256)": {
        "details": "See {IERC721Metadata-tokenURI}."
      },
      "transferFrom(address,address,uint256)": {
        "details": "See {IERC721-transferFrom}."
      }
    },
    "version": 1
  },
  "userdoc": {
    "kind": "user",
    "methods": {},
    "version": 1
  }
}