{
  "contractName": "NFTToken",
  "abi": [
    {
      "inputs": [],
      "stateMutability": "nonpayable",
      "type": "constructor"
    },
    {
      "anonymous": false,
      "inputs": [
        {
          "indexed": true,
          "internalType": "address",
          "name": "owner",
          "type": "address"
        },
        {
          "indexed": true,
          "internalType": "address",
          "name": "approved",
          "type": "address"
        },
        {
          "indexed": true,
          "internalType": "uint256",
          "name": "tokenId",
          "type": "uint256"
        }
      ],
      "name": "Approval",
      "type": "event"
    },
    {
      "anonymous": false,
      "inputs": [
        {
          "indexed": true,
          "internalType": "address",
          "name": "owner",
          "type": "address"
        },
        {
          "indexed": true,
          "internalType": "address",
          "name": "operator",
          "type": "address"
        },
        {
          "indexed": false,
          "internalType": "bool",
          "name": "approved",
          "type": "bool"
        }
      ],
      "name": "ApprovalForAll",
      "type": "event"
    },
    {
      "anonymous": false,
      "inputs": [
        {
          "indexed": true,
          "internalType": "address",
          "name": "from",
          "type": "address"
        },
        {
          "indexed": true,
          "internalType": "address",
          "name": "to",
          "type": "address"
        },
        {
          "indexed": true,
          "internalType": "uint256",
          "name": "tokenId",
          "type": "uint256"
        }
      ],
      "name": "Transfer",
      "type": "event"
    },
    {
      "inputs": [
        {
          "internalType": "address",
          "name": "to",
          "type": "address"
        },
        {
          "internalType": "uint256",
          "name": "tokenId",
          "type": "uint256"
        }
      ],
      "name": "approve",
      "outputs": [],
      "stateMutability": "nonpayable",
      "type": "function"
    },
    {
      "inputs": [
        {
          "internalType": "address",
          "name": "owner",
          "type": "address"
        }
      ],
      "name": "balanceOf",
      "outputs": [
        {
          "internalType": "uint256",
          "name": "",
          "type": "uint256"
        }
      ],
      "stateMutability": "view",
      "type": "function",
      "constant": true
    },
    {
      "inputs": [
        {
          "internalType": "uint256",
          "name": "tokenId",
          "type": "uint256"
        }
      ],
      "name": "getApproved",
      "outputs": [
        {
          "internalType": "address",
          "name": "",
          "type": "address"
        }
      ],
      "stateMutability": "view",
      "type": "function",
      "constant": true
    },
    {
      "inputs": [
        {
          "internalType": "address",
          "name": "owner",
          "type": "address"
        },
        {
          "internalType": "address",
          "name": "operator",
          "type": "address"
        }
      ],
      "name": "isApprovedForAll",
      "outputs": [
        {
          "internalType": "bool",
          "name": "",
          "type": "bool"
        }
      ],
      "stateMutability": "view",
      "type": "function",
      "constant": true
    },
    {
      "inputs": [],
      "name": "name",
      "outputs": [
        {
          "internalType": "string",
          "name": "",
          "type": "string"
        }
      ],
      "stateMutability": "view",
      "type": "function",
      "constant": true
    },
    {
      "inputs": [
        {
          "internalType": "uint256",
          "name": "tokenId",
          "type": "uint256"
        }
      ],
      "name": "ownerOf",
      "outputs": [
        {
          "internalType": "address",
          "name": "",
          "type": "address"
        }
      ],
      "stateMutability": "view",
      "type": "function",
      "constant": true
    },
    {
      "inputs": [
        {
          "internalType": "address",
          "name": "from",
          "type": "address"
        },
        {
          "internalType": "address",
          "name": "to",
          "type": "address"
        },
        {
          "internalType": "uint256",
          "name": "tokenId",
          "type": "uint256"
        }
      ],
      "name": "safeTransferFrom",
      "outputs": [],
      "stateMutability": "nonpayable",
      "type": "function"
    },
    {
      "inputs": [
        {
          "internalType": "address",
          "name": "from",
          "type": "address"
        },
        {
          "internalType": "address",
          "name": "to",
          "type": "address"
        },
        {
          "internalType": "uint256",
          "name": "tokenId",
          "type": "uint256"
        },
        {
          "internalType": "bytes",
          "name": "_data",
          "type": "bytes"
        }
      ],
      "name": "safeTransferFrom",
      "outputs": [],
      "stateMutability": "nonpayable",
      "type": "function"
    },
    {
      "inputs": [
        {
          "internalType": "address",
          "name": "operator",
          "type": "address"
        },
        {
          "internalType": "bool",
          "name": "approved",
          "type": "bool"
        }
      ],
      "name": "setApprovalForAll",
      "outputs": [],
      "stateMutability": "nonpayable",
      "type": "function"
    },
    {
      "inputs": [
        {
          "internalType": "bytes4",
          "name": "interfaceId",
          "type": "bytes4"
        }
      ],
      "name": "supportsInterface",
      "outputs": [
        {
          "internalType": "bool",
          "name": "",
          "type": "bool"
        }
      ],
      "stateMutability": "view",
      "type": "function",
      "constant": true
    },
    {
      "inputs": [],
      "name": "symbol",
      "outputs": [
        {
          "internalType": "string",
          "name": "",
          "type": "string"
        }
      ],
      "stateMutability": "view",
      "type": "function",
      "constant": true
    },
    {
      "inputs": [],
      "name": "tokenId",
      "outputs": [
        {
          "internalType": "uint256",
          "name": "",
          "type": "uint256"
        }
      ],
      "stateMutability": "view",
      "type": "function",
      "constant": true
    },
    {
      "inputs": [
        {
          "internalType": "uint256",
          "name": "tokenId",
          "type": "uint256"
        }
      ],
      "name": "tokenURI",
      "outputs": [
        {
          "internalType": "string",
          "name": "",
          "type": "string"
        }
      ],
      "stateMutability": "view",
      "type": "function",
      "constant": true
    },
    {
      "inputs": [
        {
          "internalType": "address",
          "name": "from",
          "type": "address"
        },
        {
          "internalType": "address",
          "name": "to",
          "type": "address"
        },
        {
          "internalType": "uint256",
          "name": "tokenId",
          "type": "uint256"
        }
      ],
      "name": "transferFrom",
      "outputs": [],
      "stateMutability": "nonpayable",
      "type": "function"
    },
    {
      "inputs": [
        {
          "internalType": "string",
          "name": "tokenURI",
          "type": "string"
        }
      ],
      "name": "mint",
      "outputs": [
        {
          "internalType": "uint256",
          "name": "",
          "type": "uint256"
        }
      ],
      "stateMutability": "nonpayable",
      "type": "function"
    }
  ],
  "bytecode": "0x60806040523480156200001157600080fd5b50604080518082018252600881526727232a2a37b5b2b760c11b60208083019182528351808501909452600384526213919560ea1b9084015281519192916200005d916000916200007c565b508051620000739060019060208401906200007c565b5050506200015e565b8280546200008a9062000122565b90600052602060002090601f016020900481019282620000ae5760008555620000f9565b82601f10620000c957805160ff1916838001178555620000f9565b82800160010185558215620000f9579182015b82811115620000f9578251825591602001919060010190620000dc565b50620001079291506200010b565b5090565b5b808211156200010757600081556001016200010c565b600181811c908216806200013757607f821691505b6020821081036200015857634e487b7160e01b600052602260045260246000fd5b50919050565b611778806200016e6000396000f3fe608060405234801561001057600080fd5b50600436106100f55760003560e01c80636352211e11610097578063b88d4fde11610066578063b88d4fde146101f5578063c87b56dd14610208578063d85d3d271461021b578063e985e9c51461022e57600080fd5b80636352211e146101b457806370a08231146101c757806395d89b41146101da578063a22cb465146101e257600080fd5b8063095ea7b3116100d3578063095ea7b31461016257806317d70f7c1461017757806323b872dd1461018e57806342842e0e146101a157600080fd5b806301ffc9a7146100fa57806306fdde0314610122578063081812fc14610137575b600080fd5b61010d610108366004611219565b61026a565b60405190151581526020015b60405180910390f35b61012a6102bc565b604051610119919061128e565b61014a6101453660046112a1565b61034e565b6040516001600160a01b039091168152602001610119565b6101756101703660046112d6565b6103db565b005b61018060075481565b604051908152602001610119565b61017561019c366004611300565b6104f0565b6101756101af366004611300565b610521565b61014a6101c23660046112a1565b61053c565b6101806101d536600461133c565b6105b3565b61012a61063a565b6101756101f0366004611357565b610649565b6101756102033660046113a9565b610658565b61012a6102163660046112a1565b610690565b610180610229366004611485565b610806565b61010d61023c3660046114f7565b6001600160a01b03918216600090815260056020908152604080832093909416825291909152205460ff1690565b60006001600160e01b031982166380ac58cd60e01b148061029b57506001600160e01b03198216635b5e139f60e01b145b806102b657506301ffc9a760e01b6001600160e01b03198316145b92915050565b6060600080546102cb9061152a565b80601f01602080910402602001604051908101604052809291908181526020018280546102f79061152a565b80156103445780601f1061031957610100808354040283529160200191610344565b820191906000526020600020905b81548152906001019060200180831161032757829003601f168201915b5050505050905090565b600061035982610874565b6103bf5760405162461bcd60e51b815260206004820152602c60248201527f4552433732313a20617070726f76656420717565727920666f72206e6f6e657860448201526b34b9ba32b73a103a37b5b2b760a11b60648201526084015b60405180910390fd5b506000908152600460205260409020546001600160a01b031690565b60006103e68261053c565b9050806001600160a01b0316836001600160a01b0316036104535760405162461bcd60e51b815260206004820152602160248201527f4552433732313a20617070726f76616c20746f2063757272656e74206f776e656044820152603960f91b60648201526084016103b6565b336001600160a01b038216148061046f575061046f813361023c565b6104e15760405162461bcd60e51b815260206004820152603860248201527f4552433732313a20617070726f76652063616c6c6572206973206e6f74206f7760448201527f6e6572206e6f7220617070726f76656420666f7220616c6c000000000000000060648201526084016103b6565b6104eb8383610891565b505050565b6104fa33826108ff565b6105165760405162461bcd60e51b81526004016103b690611564565b6104eb8383836109e5565b6104eb83838360405180602001604052806000815250610658565b6000818152600260205260408120546001600160a01b0316806102b65760405162461bcd60e51b815260206004820152602960248201527f4552433732313a206f776e657220717565727920666f72206e6f6e657869737460448201526832b73a103a37b5b2b760b91b60648201526084016103b6565b60006001600160a01b03821661061e5760405162461bcd60e51b815260206004820152602a60248201527f4552433732313a2062616c616e636520717565727920666f7220746865207a65604482015269726f206164647265737360b01b60648201526084016103b6565b506001600160a01b031660009081526003602052604090205490565b6060600180546102cb9061152a565b610654338383610b81565b5050565b61066233836108ff565b61067e5760405162461bcd60e51b81526004016103b690611564565b61068a84848484610c4f565b50505050565b606061069b82610874565b6107015760405162461bcd60e51b815260206004820152603160248201527f45524337323155524953746f726167653a2055524920717565727920666f72206044820152703737b732bc34b9ba32b73a103a37b5b2b760791b60648201526084016103b6565b6000828152600660205260408120805461071a9061152a565b80601f01602080910402602001604051908101604052809291908181526020018280546107469061152a565b80156107935780601f1061076857610100808354040283529160200191610793565b820191906000526020600020905b81548152906001019060200180831161077657829003601f168201915b5050505050905060006107b160408051602081019091526000815290565b905080516000036107c3575092915050565b8151156107f55780826040516020016107dd9291906115b5565b60405160208183030381529060405292505050919050565b6107fe84610c82565b949350505050565b6007805460009182610817836115fa565b919050555061082833600754610d5a565b61086a60075484848080601f016020809104026020016040519081016040528093929190818152602001838380828437600092019190915250610d7492505050565b5060075492915050565b6000908152600260205260409020546001600160a01b0316151590565b600081815260046020526040902080546001600160a01b0319166001600160a01b03841690811790915581906108c68261053c565b6001600160a01b03167f8c5be1e5ebec7d5bd14f71427d1e84f3dd0314c0f7b2291e5b200ac8c7c3b92560405160405180910390a45050565b600061090a82610874565b61096b5760405162461bcd60e51b815260206004820152602c60248201527f4552433732313a206f70657261746f7220717565727920666f72206e6f6e657860448201526b34b9ba32b73a103a37b5b2b760a11b60648201526084016103b6565b60006109768361053c565b9050806001600160a01b0316846001600160a01b031614806109b15750836001600160a01b03166109a68461034e565b6001600160a01b0316145b806107fe57506001600160a01b0380821660009081526005602090815260408083209388168352929052205460ff166107fe565b826001600160a01b03166109f88261053c565b6001600160a01b031614610a5c5760405162461bcd60e51b815260206004820152602560248201527f4552433732313a207472616e736665722066726f6d20696e636f72726563742060448201526437bbb732b960d91b60648201526084016103b6565b6001600160a01b038216610abe5760405162461bcd60e51b8152602060048201526024808201527f4552433732313a207472616e7366657220746f20746865207a65726f206164646044820152637265737360e01b60648201526084016103b6565b610ac9600082610891565b6001600160a01b0383166000908152600360205260408120805460019290610af2908490611613565b90915550506001600160a01b0382166000908152600360205260408120805460019290610b2090849061162a565b909155505060008181526002602052604080822080546001600160a01b0319166001600160a01b0386811691821790925591518493918716917fddf252ad1be2c89b69c2b068fc378daa952ba7f163c4a11628f55a4df523b3ef91a4505050565b816001600160a01b0316836001600160a01b031603610be25760405162461bcd60e51b815260206004820152601960248201527f4552433732313a20617070726f766520746f2063616c6c65720000000000000060448201526064016103b6565b6001600160a01b03838116600081815260056020908152604080832094871680845294825291829020805460ff191686151590811790915591519182527f17307eab39ab6107e8899845ad3d59bd9653f200f220920489ca2b5937696c31910160405180910390a3505050565b610c5a8484846109e5565b610c6684848484610dff565b61068a5760405162461bcd60e51b81526004016103b690611642565b6060610c8d82610874565b610cf15760405162461bcd60e51b815260206004820152602f60248201527f4552433732314d657461646174613a2055524920717565727920666f72206e6f60448201526e3732bc34b9ba32b73a103a37b5b2b760891b60648201526084016103b6565b6000610d0860408051602081019091526000815290565b90506000815111610d285760405180602001604052806000815250610d53565b80610d3284610f00565b604051602001610d439291906115b5565b6040516020818303038152906040525b9392505050565b610654828260405180602001604052806000815250611001565b610d7d82610874565b610de05760405162461bcd60e51b815260206004820152602e60248201527f45524337323155524953746f726167653a2055524920736574206f66206e6f6e60448201526d32bc34b9ba32b73a103a37b5b2b760911b60648201526084016103b6565b600082815260066020908152604090912082516104eb92840190611167565b60006001600160a01b0384163b15610ef557604051630a85bd0160e11b81526001600160a01b0385169063150b7a0290610e43903390899088908890600401611694565b6020604051808303816000875af1925050508015610e7e575060408051601f3d908101601f19168201909252610e7b918101906116d1565b60015b610edb573d808015610eac576040519150601f19603f3d011682016040523d82523d6000602084013e610eb1565b606091505b508051600003610ed35760405162461bcd60e51b81526004016103b690611642565b805181602001fd5b6001600160e01b031916630a85bd0160e11b1490506107fe565b506001949350505050565b606081600003610f275750506040805180820190915260018152600360fc1b602082015290565b8160005b8115610f515780610f3b816115fa565b9150610f4a9050600a83611704565b9150610f2b565b60008167ffffffffffffffff811115610f6c57610f6c611393565b6040519080825280601f01601f191660200182016040528015610f96576020820181803683370190505b5090505b84156107fe57610fab600183611613565b9150610fb8600a86611718565b610fc390603061162a565b60f81b818381518110610fd857610fd861172c565b60200101906001600160f81b031916908160001a905350610ffa600a86611704565b9450610f9a565b61100b8383611034565b6110186000848484610dff565b6104eb5760405162461bcd60e51b81526004016103b690611642565b6001600160a01b03821661108a5760405162461bcd60e51b815260206004820181905260248201527f4552433732313a206d696e7420746f20746865207a65726f206164647265737360448201526064016103b6565b61109381610874565b156110e05760405162461bcd60e51b815260206004820152601c60248201527f4552433732313a20746f6b656e20616c7265616479206d696e7465640000000060448201526064016103b6565b6001600160a01b038216600090815260036020526040812080546001929061110990849061162a565b909155505060008181526002602052604080822080546001600160a01b0319166001600160a01b03861690811790915590518392907fddf252ad1be2c89b69c2b068fc378daa952ba7f163c4a11628f55a4df523b3ef908290a45050565b8280546111739061152a565b90600052602060002090601f01602090048101928261119557600085556111db565b82601f106111ae57805160ff19168380011785556111db565b828001600101855582156111db579182015b828111156111db5782518255916020019190600101906111c0565b506111e79291506111eb565b5090565b5b808211156111e757600081556001016111ec565b6001600160e01b03198116811461121657600080fd5b50565b60006020828403121561122b57600080fd5b8135610d5381611200565b60005b83811015611251578181015183820152602001611239565b8381111561068a5750506000910152565b6000815180845261127a816020860160208601611236565b601f01601f19169290920160200192915050565b602081526000610d536020830184611262565b6000602082840312156112b357600080fd5b5035919050565b80356001600160a01b03811681146112d157600080fd5b919050565b600080604083850312156112e957600080fd5b6112f2836112ba565b946020939093013593505050565b60008060006060848603121561131557600080fd5b61131e846112ba565b925061132c602085016112ba565b9150604084013590509250925092565b60006020828403121561134e57600080fd5b610d53826112ba565b6000806040838503121561136a57600080fd5b611373836112ba565b91506020830135801515811461138857600080fd5b809150509250929050565b634e487b7160e01b600052604160045260246000fd5b600080600080608085870312156113bf57600080fd5b6113c8856112ba565b93506113d6602086016112ba565b925060408501359150606085013567ffffffffffffffff808211156113fa57600080fd5b818701915087601f83011261140e57600080fd5b81358181111561142057611420611393565b604051601f8201601f19908116603f0116810190838211818310171561144857611448611393565b816040528281528a602084870101111561146157600080fd5b82602086016020830137600060208483010152809550505050505092959194509250565b6000806020838503121561149857600080fd5b823567ffffffffffffffff808211156114b057600080fd5b818501915085601f8301126114c457600080fd5b8135818111156114d357600080fd5b8660208285010111156114e557600080fd5b60209290920196919550909350505050565b6000806040838503121561150a57600080fd5b611513836112ba565b9150611521602084016112ba565b90509250929050565b600181811c9082168061153e57607f821691505b60208210810361155e57634e487b7160e01b600052602260045260246000fd5b50919050565b60208082526031908201527f4552433732313a207472616e736665722063616c6c6572206973206e6f74206f6040820152701ddb995c881b9bdc88185c1c1c9bdd9959607a1b606082015260800190565b600083516115c7818460208801611236565b8351908301906115db818360208801611236565b01949350505050565b634e487b7160e01b600052601160045260246000fd5b60006001820161160c5761160c6115e4565b5060010190565b600082821015611625576116256115e4565b500390565b6000821982111561163d5761163d6115e4565b500190565b60208082526032908201527f4552433732313a207472616e7366657220746f206e6f6e20455243373231526560408201527131b2b4bb32b91034b6b83632b6b2b73a32b960711b606082015260800190565b6001600160a01b03858116825284166020820152604081018390526080606082018190526000906116c790830184611262565b9695505050505050565b6000602082840312156116e357600080fd5b8151610d5381611200565b634e487b7160e01b600052601260045260246000fd5b600082611713576117136116ee565b500490565b600082611727576117276116ee565b500690565b634e487b7160e01b600052603260045260246000fdfea2646970667358221220fa10cdf92b3267ebf3e391a616e68da391dc5f441900c51f18c60ac71426613364736f6c634300080e0033",
  "immutableReferences": {},
  "source": "pragma solidity ^0.8.0;\r\n\r\nimport \"@openzeppelin/contracts/token/ERC721/extensions/ERC721URIStorage.sol\";\r\ncontract NFTToken is ERC721URIStorage{\r\n    uint public tokenId;\r\n\r\n    constructor() ERC721('NFTToken','NFT'){}\r\n    \r\n    function mint(string calldata tokenURI) public returns(uint){\r\n        tokenId++ ;\r\n        _safeMint(msg.sender, tokenId);\r\n        _setTokenURI(tokenId, tokenURI);\r\n        return(tokenId);\r\n    }\r\n}",
  "sourcePath": "C:\\Users\\DADA\\Desktop\\nft-marketplace\\src\\contracts\\Token.sol",
  "compiler": {
    "name": "solc",
    "version": "0.8.14+commit.80d49f37.Emscripten.clang"
  },
  "schemaVersion": "3.4.7",
  "updatedAt": "2022-05-24T09:07:47.024Z",
  "networkType": "ethereum",
  "devdoc": {
    "kind": "dev",
    "methods": {
      "approve(address,uint256)": {
        "details": "See {IERC721-approve}."
      },
      "balanceOf(address)": {
        "details": "See {IERC721-balanceOf}."
      },
      "getApproved(uint256)": {
        "details": "See {IERC721-getApproved}."
      },
      "isApprovedForAll(address,address)": {
        "details": "See {IERC721-isApprovedForAll}."
      },
      "name()": {
        "details": "See {IERC721Metadata-name}."
      },
      "ownerOf(uint256)": {
        "details": "See {IERC721-ownerOf}."
      },
      "safeTransferFrom(address,address,uint256)": {
        "details": "See {IERC721-safeTransferFrom}."
      },
      "safeTransferFrom(address,address,uint256,bytes)": {
        "details": "See {IERC721-safeTransferFrom}."
      },
      "setApprovalForAll(address,bool)": {
        "details": "See {IERC721-setApprovalForAll}."
      },
      "supportsInterface(bytes4)": {
        "details": "See {IERC165-supportsInterface}."
      },
      "symbol()": {
        "details": "See {IERC721Metadata-symbol}."
      },
      "tokenURI(uint256)": {
        "details": "See {IERC721Metadata-tokenURI}."
      },
      "transferFrom(address,address,uint256)": {
        "details": "See {IERC721-transferFrom}."
      }
    },
    "version": 1
  },
  "userdoc": {
    "kind": "user",
    "methods": {},
    "version": 1
  }
}